{"abi":[{"type":"constructor","inputs":[{"name":"orgs","type":"address","internalType":"contract Organization"},{"name":"accs","type":"address","internalType":"contract AccountRulesV2"}],"stateMutability":"nonpayable"},{"type":"function","name":"accounts","inputs":[],"outputs":[{"name":"","type":"address","internalType":"contract AccountRulesV2"}],"stateMutability":"view"},{"type":"function","name":"cancelProposal","inputs":[{"name":"proposalId","type":"uint256","internalType":"uint256"},{"name":"reason","type":"string","internalType":"string"}],"outputs":[],"stateMutability":"nonpayable"},{"type":"function","name":"castVote","inputs":[{"name":"proposalId","type":"uint256","internalType":"uint256"},{"name":"approve","type":"bool","internalType":"bool"}],"outputs":[{"name":"","type":"bool","internalType":"bool"}],"stateMutability":"nonpayable"},{"type":"function","name":"createProposal","inputs":[{"name":"targets","type":"address[]","internalType":"address[]"},{"name":"calldatas","type":"bytes[]","internalType":"bytes[]"},{"name":"blocksDuration","type":"uint256","internalType":"uint256"},{"name":"description","type":"string","internalType":"string"}],"outputs":[{"name":"","type":"uint256","internalType":"uint256"}],"stateMutability":"nonpayable"},{"type":"function","name":"executeProposal","inputs":[{"name":"proposalId","type":"uint256","internalType":"uint256"}],"outputs":[{"name":"","type":"bytes[]","internalType":"bytes[]"}],"stateMutability":"nonpayable"},{"type":"function","name":"getProposal","inputs":[{"name":"proposalId","type":"uint256","internalType":"uint256"}],"outputs":[{"name":"","type":"tuple","internalType":"struct Governance.ProposalData","components":[{"name":"id","type":"uint256","internalType":"uint256"},{"name":"creator","type":"address","internalType":"address"},{"name":"targets","type":"address[]","internalType":"address[]"},{"name":"calldatas","type":"bytes[]","internalType":"bytes[]"},{"name":"blocksDuration","type":"uint256","internalType":"uint256"},{"name":"description","type":"string","internalType":"string"},{"name":"creationBlock","type":"uint256","internalType":"uint256"},{"name":"status","type":"uint8","internalType":"enum Governance.ProposalStatus"},{"name":"result","type":"uint8","internalType":"enum Governance.ProposalResult"},{"name":"organizations","type":"uint256[]","internalType":"uint256[]"},{"name":"cancelationReason","type":"string","internalType":"string"}]}],"stateMutability":"view"},{"type":"function","name":"getVotes","inputs":[{"name":"proposalId","type":"uint256","internalType":"uint256"}],"outputs":[{"name":"","type":"uint8[]","internalType":"enum Governance.ProposalVote[]"}],"stateMutability":"view"},{"type":"function","name":"idSeed","inputs":[],"outputs":[{"name":"","type":"uint256","internalType":"uint256"}],"stateMutability":"view"},{"type":"function","name":"organizations","inputs":[],"outputs":[{"name":"","type":"address","internalType":"contract Organization"}],"stateMutability":"view"},{"type":"function","name":"proposals","inputs":[{"name":"","type":"uint256","internalType":"uint256"}],"outputs":[{"name":"id","type":"uint256","internalType":"uint256"},{"name":"creator","type":"address","internalType":"address"},{"name":"blocksDuration","type":"uint256","internalType":"uint256"},{"name":"description","type":"string","internalType":"string"},{"name":"creationBlock","type":"uint256","internalType":"uint256"},{"name":"status","type":"uint8","internalType":"enum Governance.ProposalStatus"},{"name":"result","type":"uint8","internalType":"enum Governance.ProposalResult"},{"name":"cancelationReason","type":"string","internalType":"string"}],"stateMutability":"view"},{"type":"function","name":"votes","inputs":[{"name":"","type":"uint256","internalType":"uint256"},{"name":"","type":"uint256","internalType":"uint256"}],"outputs":[{"name":"","type":"uint8","internalType":"enum Governance.ProposalVote"}],"stateMutability":"view"},{"type":"event","name":"OrganizationVoted","inputs":[{"name":"proposalId","type":"uint256","indexed":true,"internalType":"uint256"},{"name":"admin","type":"address","indexed":false,"internalType":"address"},{"name":"approve","type":"bool","indexed":false,"internalType":"bool"}],"anonymous":false},{"type":"event","name":"ProposalApproved","inputs":[{"name":"proposalId","type":"uint256","indexed":true,"internalType":"uint256"}],"anonymous":false},{"type":"event","name":"ProposalCanceled","inputs":[{"name":"proposalId","type":"uint256","indexed":true,"internalType":"uint256"}],"anonymous":false},{"type":"event","name":"ProposalCreated","inputs":[{"name":"proposalId","type":"uint256","indexed":true,"internalType":"uint256"},{"name":"creator","type":"address","indexed":false,"internalType":"address"}],"anonymous":false},{"type":"event","name":"ProposalExecuted","inputs":[{"name":"proposalId","type":"uint256","indexed":true,"internalType":"uint256"},{"name":"executor","type":"address","indexed":false,"internalType":"address"}],"anonymous":false},{"type":"event","name":"ProposalFinished","inputs":[{"name":"proposalId","type":"uint256","indexed":true,"internalType":"uint256"}],"anonymous":false},{"type":"event","name":"ProposalRejected","inputs":[{"name":"proposalId","type":"uint256","indexed":true,"internalType":"uint256"}],"anonymous":false},{"type":"error","name":"AddressEmptyCode","inputs":[{"name":"target","type":"address","internalType":"address"}]},{"type":"error","name":"FailedCall","inputs":[]},{"type":"error","name":"IllegalState","inputs":[{"name":"message","type":"string","internalType":"string"}]},{"type":"error","name":"InsufficientBalance","inputs":[{"name":"balance","type":"uint256","internalType":"uint256"},{"name":"needed","type":"uint256","internalType":"uint256"}]},{"type":"error","name":"InvalidArgument","inputs":[{"name":"message","type":"string","internalType":"string"}]},{"type":"error","name":"ProposalNotFound","inputs":[{"name":"proposalId","type":"uint256","internalType":"uint256"}]},{"type":"error","name":"UnauthorizedAccess","inputs":[{"name":"account","type":"address","internalType":"address"},{"name":"message","type":"string","internalType":"string"}]}],"bytecode":{"object":"0x60c06040525f8055348015610012575f80fd5b50604051612ead380380612ead8339810160408190526100319161015e565b6001600160a01b0382166100b357604051631fff1b3b60e21b815260206004820152603a60248201527f496e76616c6964206164647265737320666f72204f7267616e697a6174696f6e60448201527f206d616e6167656d656e7420736d61727420636f6e747261637400000000000060648201526084015b60405180910390fd5b6001600160a01b03811661013057604051631fff1b3b60e21b815260206004820152603560248201527f496e76616c6964206164647265737320666f72204163636f756e74206d616e6160448201527f67656d656e7420736d61727420636f6e7472616374000000000000000000000060648201526084016100aa565b6001600160a01b039182166080521660a052610196565b6001600160a01b038116811461015b575f80fd5b50565b5f806040838503121561016f575f80fd5b825161017a81610147565b602084015190925061018b81610147565b809150509250929050565b60805160a051612c946102195f395f8181610177015281816103c9015281816104770152818161060e0152818161098701528181610a2c01528181610b7d01528181610c8001528181610e9a01528181610f3f01528181611017015281816110ba0152818161161b01526116c001525f818161013801526118d10152612c945ff3fe608060405234801561000f575f80fd5b50600436106100a6575f3560e01c806368cd03f61161006e57806368cd03f614610172578063a351f61514610199578063c6e36a32146101ae578063c7f758a8146101e8578063d84cee2d14610208578063ff9810991461021b575f80fd5b8063013cf08b146100aa5780630d61b519146100da578063136cf162146100fa57806315373e3d14610110578063234db1de14610133575b5f80fd5b6100bd6100b8366004612004565b61023b565b6040516100d198979695949392919061208a565b60405180910390f35b6100ed6100e8366004612004565b61039e565b6040516100d191906120fb565b6101025f5481565b6040519081526020016100d1565b61012361011e36600461216b565b61095d565b60405190151581526020016100d1565b61015a7f000000000000000000000000000000000000000000000000000000000000000081565b6040516001600160a01b0390911681526020016100d1565b61015a7f000000000000000000000000000000000000000000000000000000000000000081565b6101ac6101a73660046121dd565b610e72565b005b6101db6101bc366004612224565b600260209081525f928352604080842090915290825290205460ff1681565b6040516100d19190612244565b6101fb6101f6366004612004565b61125a565b6040516100d19190612324565b6101026102163660046125a8565b6115f1565b61022e610229366004612004565b6119ff565b6040516100d19190612676565b600160208190525f918252604090912080549181015460048201546005830180546001600160a01b03909316939192610273906126c1565b80601f016020809104026020016040519081016040528092919081815260200182805461029f906126c1565b80156102ea5780601f106102c1576101008083540402835291602001916102ea565b820191905f5260205f20905b8154815290600101906020018083116102cd57829003601f168201915b505050600684015460078501546009860180549596929560ff808416965061010090930490921693509061031d906126c1565b80601f0160208091040260200160405190810160405280929190818152602001828054610349906126c1565b80156103945780601f1061036b57610100808354040283529160200191610394565b820191905f5260205f20905b81548152906001019060200180831161037757829003601f168201915b5050505050905088565b604051632474521560e21b81525f80516020612c3f83398151915260048201523360248201526060907f00000000000000000000000000000000000000000000000000000000000000006001600160a01b0316906391d1485490604401602060405180830381865afa158015610416573d5f803e3d5ffd5b505050506040513d601f19601f8201168201806040525081019061043a9190612703565b61046257336040516337b13c2960e01b8152600401610459919061271e565b60405180910390fd5b60405163ab9d0cdd60e01b81523360048201527f00000000000000000000000000000000000000000000000000000000000000006001600160a01b03169063ab9d0cdd90602401602060405180830381865afa1580156104c4573d5f803e3d5ffd5b505050506040513d601f19601f820116820180604052508101906104e89190612703565b61050757336040516337b13c2960e01b81526004016104599190612767565b5f828152600160205260408120548391036105385760405163428d06a960e01b815260048101829052602401610459565b8260015f8281526001602052604090206007015460ff16600481111561056057610560612049565b14158015610593575060035f8281526001602052604090206007015460ff16600481111561059057610590612049565b14155b156105ed5760405163c50656df60e01b815260206004820152602360248201527f50726f706f73616c206973206e6f7420416374697665206e6f722046696e69736044820152621a195960ea1b6064820152608401610459565b60405163fbcbc0f160e01b815233600482015284905f906001600160a01b037f0000000000000000000000000000000000000000000000000000000000000000169063fbcbc0f19060240160a060405180830381865afa158015610653573d5f803e3d5ffd5b505050506040513d601f19601f8201168201806040525081019061067791906127b0565b515f838152600160205260408120919250805b60088301548110801561069b575081155b156106d9578260080181815481106106b5576106b5612837565b905f5260205f20015484036106c957600191505b6106d28161285f565b905061068a565b50806106fa57336040516337b13c2960e01b81526004016104599190612877565b875f8082815260016020526040902060070154610100900460ff16600281111561072657610726612049565b036107745760405163c50656df60e01b815260206004820152601e60248201527f50726f706f73616c20726573756c74206973206e6f7420646566696e656400006044820152606401610459565b5f8981526001602052604090206003600782015460ff16600481111561079c5761079c612049565b146107aa576107aa81611afb565b60078101805460ff191660041790556040513381528a907f9c85b616f29fca57a17eafe71cf9ff82ffef41766e2cf01ea7f8f7878dd3ec249060200160405180910390a260028101545f906001600160401b0381111561080c5761080c612427565b60405190808252806020026020018201604052801561083f57816020015b606081526020019060019003908161082a5790505b5090505f5b600283015481101561094e5761092983600201828154811061086857610868612837565b5f918252602090912001546003850180546001600160a01b03909216918490811061089557610895612837565b905f5260205f200180546108a8906126c1565b80601f01602080910402602001604051908101604052809291908181526020018280546108d4906126c1565b801561091f5780601f106108f65761010080835404028352916020019161091f565b820191905f5260205f20905b81548152906001019060200180831161090257829003601f168201915b5050505050611b37565b82828151811061093b5761093b612837565b6020908102919091010152600101610844565b509a9950505050505050505050565b604051632474521560e21b81525f80516020612c3f83398151915260048201523360248201525f907f00000000000000000000000000000000000000000000000000000000000000006001600160a01b0316906391d1485490604401602060405180830381865afa1580156109d4573d5f803e3d5ffd5b505050506040513d601f19601f820116820180604052508101906109f89190612703565b610a1757336040516337b13c2960e01b8152600401610459919061271e565b60405163ab9d0cdd60e01b81523360048201527f00000000000000000000000000000000000000000000000000000000000000006001600160a01b03169063ab9d0cdd90602401602060405180830381865afa158015610a79573d5f803e3d5ffd5b505050506040513d601f19601f82011682018060405250810190610a9d9190612703565b610abc57336040516337b13c2960e01b81526004016104599190612767565b5f83815260016020526040812054849103610aed5760405163428d06a960e01b815260048101829052602401610459565b8360015f8281526001602052604090206007015460ff166004811115610b1557610b15612049565b14610b5c5760405163c50656df60e01b815260206004820152601660248201527550726f706f73616c206973206e6f742041637469766560501b6044820152606401610459565b60405163fbcbc0f160e01b815233600482015285905f906001600160a01b037f0000000000000000000000000000000000000000000000000000000000000000169063fbcbc0f19060240160a060405180830381865afa158015610bc2573d5f803e3d5ffd5b505050506040513d601f19601f82011682018060405250810190610be691906127b0565b515f838152600160205260408120919250805b600883015481108015610c0a575081155b15610c4857826008018181548110610c2457610c24612837565b905f5260205f2001548403610c3857600191505b610c418161285f565b9050610bf9565b5080610c6957336040516337b13c2960e01b81526004016104599190612877565b60405163fbcbc0f160e01b81523360048201525f907f00000000000000000000000000000000000000000000000000000000000000006001600160a01b03169063fbcbc0f19060240160a060405180830381865afa158015610ccd573d5f803e3d5ffd5b505050506040513d601f19601f82011682018060405250810190610cf191906127b0565b90505f808b8152600260208181526040808420865185529091529091205460ff1690811115610d2257610d22612049565b14610d705760405163c50656df60e01b815260206004820152601e60248201527f4f7267616e697a6174696f6e2068617320616c726561647920766f74656400006044820152606401610459565b610d798a611b4d565b15610d87575f975050610e66565b8815610db6575f8a8152600260209081526040808320845184529091529020805460ff19166001179055610ddc565b5f8a815260026020818152604080842085518552909152909120805460ff191690911790555b604080513381528a151560208201528b917f8c4ac1565b968488fcca7d4dbcab19657637632748f3181a98f49aba0293e1e1910160405180910390a25f808b815260016020526040902060070154610100900460ff166002811115610e4357610e43612049565b03610e60575f8a8152600160205260409020610e5e90611b8e565b505b60019750505b50505050505092915050565b604051632474521560e21b81525f80516020612c3f83398151915260048201523360248201527f00000000000000000000000000000000000000000000000000000000000000006001600160a01b0316906391d1485490604401602060405180830381865afa158015610ee7573d5f803e3d5ffd5b505050506040513d601f19601f82011682018060405250810190610f0b9190612703565b610f2a57336040516337b13c2960e01b8152600401610459919061271e565b60405163ab9d0cdd60e01b81523360048201527f00000000000000000000000000000000000000000000000000000000000000006001600160a01b03169063ab9d0cdd90602401602060405180830381865afa158015610f8c573d5f803e3d5ffd5b505050506040513d601f19601f82011682018060405250810190610fb09190612703565b610fcf57336040516337b13c2960e01b81526004016104599190612767565b5f838152600160205260408120548491036110005760405163428d06a960e01b815260048101829052602401610459565b60405163fbcbc0f160e01b815233600482015284907f00000000000000000000000000000000000000000000000000000000000000006001600160a01b03169063fbcbc0f19060240160a060405180830381865afa158015611064573d5f803e3d5ffd5b505050506040513d601f19601f8201168201806040525081019061108891906127b0565b515f828152600160208190526040918290200154905163fbcbc0f160e01b81526001600160a01b0391821660048201527f00000000000000000000000000000000000000000000000000000000000000009091169063fbcbc0f19060240160a060405180830381865afa158015611101573d5f803e3d5ffd5b505050506040513d601f19601f8201168201806040525081019061112591906127b0565b511461118e57604080516337b13c2960e01b81523360048201526024810191909152602960448201527f53656e646572206973206e6f742066726f6d2070726f706f6e656e74206f726760648201526830b734bd30ba34b7b760b91b608482015260a401610459565b8460015f8281526001602052604090206007015460ff1660048111156111b6576111b6612049565b146111fd5760405163c50656df60e01b815260206004820152601660248201527550726f706f73616c206973206e6f742041637469766560501b6044820152606401610459565b5f86815260016020526040902060078101805460ff19166002179055600901611227858783612932565b5060405186907f789cf55be980739dad1d0699b93b58e806b51c9d96619bfa8fe0a28abaa7b30c905f90a2505050505050565b611262611e7e565b5f828152600160205260408120548391036112935760405163428d06a960e01b815260048101829052602401610459565b5f8381526001602081815260409283902083516101608101855281548152928101546001600160a01b0316838301526002810180548551818502810185018752818152949592949286019383018282801561131557602002820191905f5260205f20905b81546001600160a01b031681526001909101906020018083116112f7575b5050505050815260200160038201805480602002602001604051908101604052809291908181526020015f905b828210156113ea578382905f5260205f2001805461135f906126c1565b80601f016020809104026020016040519081016040528092919081815260200182805461138b906126c1565b80156113d65780601f106113ad576101008083540402835291602001916113d6565b820191905f5260205f20905b8154815290600101906020018083116113b957829003601f168201915b505050505081526020019060010190611342565b5050505081526020016004820154815260200160058201805461140c906126c1565b80601f0160208091040260200160405190810160405280929190818152602001828054611438906126c1565b80156114835780601f1061145a57610100808354040283529160200191611483565b820191905f5260205f20905b81548152906001019060200180831161146657829003601f168201915b505050918352505060068201546020820152600782015460409091019060ff1660048111156114b4576114b4612049565b60048111156114c5576114c5612049565b81526020016007820160019054906101000a900460ff1660028111156114ed576114ed612049565b60028111156114fe576114fe612049565b81526020016008820180548060200260200160405190810160405280929190818152602001828054801561154f57602002820191905f5260205f20905b81548152602001906001019080831161153b575b50505050508152602001600982018054611568906126c1565b80601f0160208091040260200160405190810160405280929190818152602001828054611594906126c1565b80156115df5780601f106115b6576101008083540402835291602001916115df565b820191905f5260205f20905b8154815290600101906020018083116115c257829003601f168201915b50505050508152505091505b50919050565b604051632474521560e21b81525f80516020612c3f83398151915260048201523360248201525f907f00000000000000000000000000000000000000000000000000000000000000006001600160a01b0316906391d1485490604401602060405180830381865afa158015611668573d5f803e3d5ffd5b505050506040513d601f19601f8201168201806040525081019061168c9190612703565b6116ab57336040516337b13c2960e01b8152600401610459919061271e565b60405163ab9d0cdd60e01b81523360048201527f00000000000000000000000000000000000000000000000000000000000000006001600160a01b03169063ab9d0cdd90602401602060405180830381865afa15801561170d573d5f803e3d5ffd5b505050506040513d601f19601f820116820180604052508101906117319190612703565b61175057336040516337b13c2960e01b81526004016104599190612767565b845186146117c057604051631fff1b3b60e21b815260206004820152603660248201527f5461726765747320616e642063616c6c646174617320617272617973206d75736044820152750e840d0c2ecca40e8d0ca40e6c2daca40d8cadccee8d60531b6064820152608401610459565b835f0361182257604051631fff1b3b60e21b815260206004820152602960248201527f4475726174696f6e206d7573742062652067726561746572207468616e207a65604482015268726f20626c6f636b7360b81b6064820152608401610459565b5f805f81546118309061285f565b91829055505f81815260016020819052604090912082815590810180546001600160a01b0319163317905590915061186c600282018a8a611eec565b50865161188290600383019060208a0190611f4d565b506004810186905560058101611899858783612932565b5043600682015560078101805461ffff19166001179055604080516312ea947560e31b8152905160088301915f916001600160a01b037f00000000000000000000000000000000000000000000000000000000000000001691639754a3a891600480830192869291908290030181865afa158015611919573d5f803e3d5ffd5b505050506040513d5f823e601f3d908101601f1916820160405261194091908101906129eb565b90505f5b81518110156119ab5781818151811061195f5761195f612837565b602002602001015160400151156119a3578282828151811061198357611983612837565b6020908102919091018101515182546001810184555f9384529190922001555b600101611944565b50825460018401546040516001600160a01b0390911681527fcd423cc1203c0af96b9b3d68d73b3064a69de2d14450bb7181c5e5df2132b3589060200160405180910390a250919998505050505050505050565b5f8181526001602052604081206008018054606092906001600160401b03811115611a2c57611a2c612427565b604051908082528060200260200182016040528015611a55578160200160208202803683370190505b5090505f5b8254811015611af35760025f8681526020019081526020015f205f848381548110611a8757611a87612837565b905f5260205f20015481526020019081526020015f205f9054906101000a900460ff16828281518110611abc57611abc612837565b60200260200101906002811115611ad557611ad5612049565b90816002811115611ae857611ae8612049565b905250600101611a5a565b509392505050565b60078101805460ff1916600317905580546040517fc2946e69de813a7cede502a3b315aa221abf9fcca5c7134b0ae6b2c3857cf63d905f90a250565b6060611b4483835f611d54565b90505b92915050565b5f81815260016020526040812060048101546006820154611b6e9043612b29565b1115611b8657611b7d81611afb565b50600192915050565b505f92915050565b60088101545f908190611ba390600290612b3c565b611bae906001612b5b565b90505f805f5b6008860154811015611c5f5785545f90815260026020526040812060088801805483919085908110611be857611be8612837565b5f918252602080832090910154835282019290925260400190205460ff1690506001816002811115611c1c57611c1c612049565b03611c3157611c2a8461285f565b9350611c56565b6002816002811115611c4557611c45612049565b03611c5657611c538361285f565b92505b50600101611bb4565b50828210611cad5760078501805461ff00191661010017905584546040517f28ec9e38ba73636ceb2f6c1574136f83bd46284a3c74734b711bf45e12f8d929905f90a2506001949350505050565b828110611cfa5760078501805461ff00191661020017905584546040517fd92fba445edb3153b571e6df782d7a66fd0ce668519273670820ee3a86da0ef4905f90a2506001949350505050565b6008850154611d098284612b5b565b03611d4a5760078501805461ff00191661020017905584546040517fd92fba445edb3153b571e6df782d7a66fd0ce668519273670820ee3a86da0ef4905f90a25b505f949350505050565b606081471015611d805760405163cf47918160e01b815247600482015260248101839052604401610459565b5f80856001600160a01b03168486604051611d9b9190612b6e565b5f6040518083038185875af1925050503d805f8114611dd5576040519150601f19603f3d011682016040523d82523d5f602084013e611dda565b606091505b5091509150611dea868383611df6565b925050505b9392505050565b606082611e0b57611e0682611e52565b611def565b8151158015611e2257506001600160a01b0384163b155b15611e4b57604051639996b31560e01b81526001600160a01b0385166004820152602401610459565b5080611def565b805115611e625780518082602001fd5b60405163d6bda27560e01b815260040160405180910390fd5b50565b6040518061016001604052805f81526020015f6001600160a01b0316815260200160608152602001606081526020015f8152602001606081526020015f81526020015f6004811115611ed257611ed2612049565b81526020015f815260200160608152602001606081525090565b828054828255905f5260205f20908101928215611f3d579160200282015b82811115611f3d5781546001600160a01b0319166001600160a01b03843516178255602090920191600190910190611f0a565b50611f49929150611f9d565b5090565b828054828255905f5260205f20908101928215611f91579160200282015b82811115611f915782518290611f819082612b84565b5091602001919060010190611f6b565b50611f49929150611fb1565b5b80821115611f49575f8155600101611f9e565b80821115611f49575f611fc48282611fcd565b50600101611fb1565b508054611fd9906126c1565b5f825580601f10611fe8575050565b601f0160209004905f5260205f2090810190611e7b9190611f9d565b5f60208284031215612014575f80fd5b5035919050565b5f81518084528060208401602086015e5f602082860101526020601f19601f83011685010191505092915050565b634e487b7160e01b5f52602160045260245ffd5b6005811061206d5761206d612049565b9052565b60038110611e7b57611e7b612049565b61206d81612071565b88815260018060a01b038816602082015286604082015261010060608201525f6120b861010083018861201b565b8660808401526120cb60a084018761205d565b6120d485612071565b8460c084015282810360e08401526120ec818561201b565b9b9a5050505050505050505050565b5f602082016020835280845180835260408501915060408160051b8601019250602086015f5b8281101561215257603f1987860301845261213d85835161201b565b94506020938401939190910190600101612121565b50929695505050505050565b8015158114611e7b575f80fd5b5f806040838503121561217c575f80fd5b82359150602083013561218e8161215e565b809150509250929050565b5f8083601f8401126121a9575f80fd5b5081356001600160401b038111156121bf575f80fd5b6020830191508360208285010111156121d6575f80fd5b9250929050565b5f805f604084860312156121ef575f80fd5b8335925060208401356001600160401b0381111561220b575f80fd5b61221786828701612199565b9497909650939450505050565b5f8060408385031215612235575f80fd5b50508035926020909101359150565b6020810161225183612071565b91905290565b5f8151808452602084019350602083015f5b828110156122905781516001600160a01b0316865260209586019590910190600101612269565b5093949350505050565b5f82825180855260208501945060208160051b830101602085015f5b838110156122e857601f198584030188526122d283835161201b565b60209889019890935091909101906001016122b6565b50909695505050505050565b5f8151808452602084019350602083015f5b82811015612290578151865260209586019590910190600101612306565b60208152815160208201525f602083015161234a60408401826001600160a01b03169052565b5060408301516101606060840152612366610180840182612257565b90506060840151601f19848303016080850152612383828261229a565b915050608084015160a084015260a0840151601f198483030160c08501526123ab828261201b565b91505060c084015160e084015260e08401516123cb61010085018261205d565b506101008401516123e0610120850182612081565b50610120840151838203601f19016101408501526123fe82826122f4565b915050610140840151601f198483030161016085015261241e828261201b565b95945050505050565b634e487b7160e01b5f52604160045260245ffd5b604051606081016001600160401b038111828210171561245d5761245d612427565b60405290565b604051601f8201601f191681016001600160401b038111828210171561248b5761248b612427565b604052919050565b5f6001600160401b038211156124ab576124ab612427565b5060051b60200190565b5f6001600160401b038211156124cd576124cd612427565b50601f01601f191660200190565b5f82601f8301126124ea575f80fd5b81356124fd6124f882612493565b612463565b8082825260208201915060208360051b86010192508583111561251e575f80fd5b602085015b8381101561259e5780356001600160401b03811115612540575f80fd5b8601603f81018813612550575f80fd5b60208101356125616124f8826124b5565b8181526040838301018a1015612575575f80fd5b816040840160208301375f60208383010152808652505050602083019250602081019050612523565b5095945050505050565b5f805f805f80608087890312156125bd575f80fd5b86356001600160401b038111156125d2575f80fd5b8701601f810189136125e2575f80fd5b80356001600160401b038111156125f7575f80fd5b8960208260051b840101111561260b575f80fd5b6020918201975095508701356001600160401b0381111561262a575f80fd5b61263689828a016124db565b9450506040870135925060608701356001600160401b03811115612658575f80fd5b61266489828a01612199565b979a9699509497509295939492505050565b602080825282518282018190525f918401906040840190835b818110156126b65783516126a281612071565b83526020938401939092019160010161268f565b509095945050505050565b600181811c908216806126d557607f821691505b6020821081036115eb57634e487b7160e01b5f52602260045260245ffd5b80516126fe8161215e565b919050565b5f60208284031215612713575f80fd5b8151611def8161215e565b6001600160a01b03919091168152604060208201819052601c908201527f53656e646572206973206e6f74206120676c6f62616c2061646d696e00000000606082015260800190565b6001600160a01b03919091168152604060208201819052601c908201527f53656e646572206163636f756e74206973206e6f742061637469766500000000606082015260800190565b5f60a08284031280156127c1575f80fd5b5060405160a081016001600160401b03811182821017156127e4576127e4612427565b6040528251815260208301516001600160a01b0381168114612804575f80fd5b60208201526040838101519082015260608084015190820152608083015161282b8161215e565b60808201529392505050565b634e487b7160e01b5f52603260045260245ffd5b634e487b7160e01b5f52601160045260245ffd5b5f600182016128705761287061284b565b5060010190565b6001600160a01b03919091168152604060208201819052603a908201527f53656e6465722773206f7267616e697a6174696f6e20646f6573206e6f74207060608201527f61727469636970617465206f6e207468652070726f706f73616c000000000000608082015260a00190565b601f82111561292d57805f5260205f20601f840160051c8101602085101561290b5750805b601f840160051c820191505b8181101561292a575f8155600101612917565b50505b505050565b6001600160401b0383111561294957612949612427565b61295d8361295783546126c1565b836128e6565b5f601f84116001811461298e575f85156129775750838201355b5f19600387901b1c1916600186901b17835561292a565b5f83815260208120601f198716915b828110156129bd578685013582556020948501946001909201910161299d565b50868210156129d9575f1960f88860031b161c19848701351681555b505060018560011b0183555050505050565b5f602082840312156129fb575f80fd5b81516001600160401b03811115612a10575f80fd5b8201601f81018413612a20575f80fd5b8051612a2e6124f882612493565b8082825260208201915060208360051b850101925086831115612a4f575f80fd5b602084015b83811015612b1e5780516001600160401b03811115612a71575f80fd5b85016060818a03601f19011215612a86575f80fd5b612a8e61243b565b6020820151815260408201516001600160401b03811115612aad575f80fd5b82016020810190603f018b13612ac1575f80fd5b8051612acf6124f8826124b5565b8181528c6020838501011115612ae3575f80fd5b8160208401602083015e5f60208383010152806020850152505050612b0a606083016126f3565b604082015284525060209283019201612a54565b509695505050505050565b81810381811115611b4757611b4761284b565b5f82612b5657634e487b7160e01b5f52601260045260245ffd5b500490565b80820180821115611b4757611b4761284b565b5f82518060208501845e5f920191825250919050565b81516001600160401b03811115612b9d57612b9d612427565b612bb181612bab84546126c1565b846128e6565b6020601f821160018114612be3575f8315612bcc5750848201515b5f19600385901b1c1916600184901b17845561292a565b5f84815260208120601f198516915b82811015612c125787850151825560209485019460019092019101612bf2565b5084821015612c2f57868401515f19600387901b60f8161c191681555b50505050600190811b0190555056fed6e7d8560c69c7c18c2b8f3b45430215d788f128f0c04bc4a3607fe05eb5399fa264697066735822122027aeaaeb115556c199747df5ea27c743a1cbb4e940be0d4fb2a07c7345656e7164736f6c634300081a0033","linkReferences":{}},"methodIdentifiers":{"accounts()":"68cd03f6","cancelProposal(uint256,string)":"a351f615","castVote(uint256,bool)":"15373e3d","createProposal(address[],bytes[],uint256,string)":"d84cee2d","executeProposal(uint256)":"0d61b519","getProposal(uint256)":"c7f758a8","getVotes(uint256)":"ff981099","idSeed()":"136cf162","organizations()":"234db1de","proposals(uint256)":"013cf08b","votes(uint256,uint256)":"c6e36a32"},"id":31}