{"abi":[{"type":"constructor","inputs":[{"name":"orgs","type":"tuple[]","internalType":"struct Organization.OrganizationData[]","components":[{"name":"id","type":"uint256","internalType":"uint256"},{"name":"name","type":"string","internalType":"string"},{"name":"canVote","type":"bool","internalType":"bool"}]},{"name":"adminsProxy","type":"address","internalType":"contract AdminProxy"}],"stateMutability":"nonpayable"},{"type":"function","name":"addOrganization","inputs":[{"name":"name","type":"string","internalType":"string"},{"name":"canVote","type":"bool","internalType":"bool"}],"outputs":[{"name":"","type":"uint256","internalType":"uint256"}],"stateMutability":"nonpayable"},{"type":"function","name":"admins","inputs":[],"outputs":[{"name":"","type":"address","internalType":"contract AdminProxy"}],"stateMutability":"view"},{"type":"function","name":"deleteOrganization","inputs":[{"name":"orgId","type":"uint256","internalType":"uint256"}],"outputs":[],"stateMutability":"nonpayable"},{"type":"function","name":"getOrganization","inputs":[{"name":"orgId","type":"uint256","internalType":"uint256"}],"outputs":[{"name":"","type":"tuple","internalType":"struct Organization.OrganizationData","components":[{"name":"id","type":"uint256","internalType":"uint256"},{"name":"name","type":"string","internalType":"string"},{"name":"canVote","type":"bool","internalType":"bool"}]}],"stateMutability":"view"},{"type":"function","name":"getOrganizations","inputs":[],"outputs":[{"name":"","type":"tuple[]","internalType":"struct Organization.OrganizationData[]","components":[{"name":"id","type":"uint256","internalType":"uint256"},{"name":"name","type":"string","internalType":"string"},{"name":"canVote","type":"bool","internalType":"bool"}]}],"stateMutability":"view"},{"type":"function","name":"idSeed","inputs":[],"outputs":[{"name":"","type":"uint256","internalType":"uint256"}],"stateMutability":"view"},{"type":"function","name":"isOrganizationActive","inputs":[{"name":"orgId","type":"uint256","internalType":"uint256"}],"outputs":[{"name":"","type":"bool","internalType":"bool"}],"stateMutability":"view"},{"type":"function","name":"organizationIds","inputs":[],"outputs":[{"name":"","type":"uint256[]","internalType":"uint256[]"}],"stateMutability":"view"},{"type":"function","name":"organizations","inputs":[{"name":"","type":"uint256","internalType":"uint256"}],"outputs":[{"name":"id","type":"uint256","internalType":"uint256"},{"name":"name","type":"string","internalType":"string"},{"name":"canVote","type":"bool","internalType":"bool"}],"stateMutability":"view"},{"type":"function","name":"updateOrganization","inputs":[{"name":"orgId","type":"uint256","internalType":"uint256"},{"name":"name","type":"string","internalType":"string"},{"name":"canVote","type":"bool","internalType":"bool"}],"outputs":[],"stateMutability":"nonpayable"},{"type":"event","name":"OrganizationAdded","inputs":[{"name":"orgId","type":"uint256","indexed":true,"internalType":"uint256"},{"name":"name","type":"string","indexed":false,"internalType":"string"},{"name":"canVote","type":"bool","indexed":false,"internalType":"bool"}],"anonymous":false},{"type":"event","name":"OrganizationDeleted","inputs":[{"name":"orgId","type":"uint256","indexed":true,"internalType":"uint256"}],"anonymous":false},{"type":"event","name":"OrganizationUpdated","inputs":[{"name":"orgId","type":"uint256","indexed":true,"internalType":"uint256"},{"name":"name","type":"string","indexed":false,"internalType":"string"},{"name":"canVote","type":"bool","indexed":false,"internalType":"bool"}],"anonymous":false},{"type":"error","name":"IllegalState","inputs":[{"name":"message","type":"string","internalType":"string"}]},{"type":"error","name":"OrganizationNotFound","inputs":[{"name":"orgId","type":"uint256","internalType":"uint256"}]},{"type":"error","name":"UnauthorizedAccess","inputs":[{"name":"account","type":"address","internalType":"address"}]}],"bytecode":{"object":"0x60a06040525f8055348015610012575f80fd5b506040516118363803806118368339810160408190526100319161033b565b806001600160a01b0381166100b35760405162461bcd60e51b815260206004820152603360248201527f496e76616c6964206164647265737320666f722041646d696e206d616e61676560448201527f6d656e7420736d61727420636f6e74726163740000000000000000000000000060648201526084015b60405180910390fd5b6001600160a01b031660805281516002111561011d5760405162461bcd60e51b815260206004820152602360248201527f4174206c656173742032206f7267616e697a6174696f6e73206d7573742065786044820152621a5cdd60ea1b60648201526084016100aa565b5f5b825181101561017b5761017283828151811061013d5761013d6104c4565b60200260200101516020015184838151811061015b5761015b6104c4565b60200260200101516040015161018360201b60201c565b5060010161011f565b505050610678565b5f805f808154610192906104d8565b9182905550604080516060810182528281526020808201888152871515838501525f8581526001928390529390932082518155925193945090928392918201906101dc9082610580565b50604091909101516002918201805460ff19169115159190911790556102029083610247565b50817f4dad03b1061978f376a9ac9d5b3957eba0a96407252f23c6fe707d65631a5bd5868660405161023592919061063a565b60405180910390a25090505b92915050565b5f6102528383610259565b9392505050565b5f81815260018301602052604081205461029e57508154600181810184555f848152602080822090930184905584548482528286019093526040902091909155610241565b505f610241565b634e487b7160e01b5f52604160045260245ffd5b604051606081016001600160401b03811182821017156102db576102db6102a5565b60405290565b604051601f8201601f191681016001600160401b0381118282101715610309576103096102a5565b604052919050565b80518015158114610320575f80fd5b919050565b80516001600160a01b0381168114610320575f80fd5b5f806040838503121561034c575f80fd5b82516001600160401b03811115610361575f80fd5b8301601f81018513610371575f80fd5b80516001600160401b0381111561038a5761038a6102a5565b8060051b61039a602082016102e1565b918252602081840181019290810190888411156103b5575f80fd5b6020850192505b838310156104a75782516001600160401b038111156103d9575f80fd5b85016060818b03601f190112156103ee575f80fd5b6103f66102b9565b6020820151815260408201516001600160401b03811115610415575f80fd5b82016020810190603f018c13610429575f80fd5b80516001600160401b03811115610442576104426102a5565b610455601f8201601f19166020016102e1565b8181528d6020838501011115610469575f80fd5b8160208401602083015e5f6020838301015280602085015250505061049060608301610311565b6040820152835250602092830192909101906103bc565b80965050505050506104bb60208401610325565b90509250929050565b634e487b7160e01b5f52603260045260245ffd5b5f600182016104f557634e487b7160e01b5f52601160045260245ffd5b5060010190565b600181811c9082168061051057607f821691505b60208210810361052e57634e487b7160e01b5f52602260045260245ffd5b50919050565b601f82111561057b57805f5260205f20601f840160051c810160208510156105595750805b601f840160051c820191505b81811015610578575f8155600101610565565b50505b505050565b81516001600160401b03811115610599576105996102a5565b6105ad816105a784546104fc565b84610534565b6020601f8211600181146105df575f83156105c85750848201515b5f19600385901b1c1916600184901b178455610578565b5f84815260208120601f198516915b8281101561060e57878501518255602094850194600190920191016105ee565b508482101561062b57868401515f19600387901b60f8161c191681555b50505050600190811b01905550565b604081525f83518060408401528060208601606085015e5f606082850101526060601f19601f83011684010191505082151560208301529392505050565b6080516111916106a55f395f818161013a015281816101e6015281816105de01526106cb01526111915ff3fe608060405234801561000f575f80fd5b506004361061009b575f3560e01c8063a5de361911610063578063a5de361914610135578063aac271bf14610174578063dc1301af14610187578063dd67826e1461019a578063e792dd8a146101af575f80fd5b8063136cf1621461009f5780632e9e006c146100ba57806337c55052146100eb5780634526f690146101005780639754a3a814610120575b5f80fd5b6100a75f5481565b6040519081526020015b60405180910390f35b6100db6100c8366004610c1e565b5f90815260016020526040902054151590565b60405190151581526020016100b1565b6100fe6100f9366004610c87565b6101d1565b005b61011361010e366004610c1e565b610321565b6040516100b19190610d44565b610128610440565b6040516100b19190610d56565b61015c7f000000000000000000000000000000000000000000000000000000000000000081565b6040516001600160a01b0390911681526020016100b1565b6100a7610182366004610db9565b6105c7565b6100fe610195366004610c1e565b6106b6565b6101a261085e565b6040516100b19190610e0c565b6101c26101bd366004610c1e565b61086f565b6040516100b193929190610e4e565b6040516301fd3f7760e71b81523360048201527f00000000000000000000000000000000000000000000000000000000000000006001600160a01b03169063fe9fbb8090602401602060405180830381865afa158015610233573d5f803e3d5ffd5b505050506040513d601f19601f820116820180604052508101906102579190610e78565b61027b57604051633733be5960e21b81523360048201526024015b60405180910390fd5b5f848152600160205260408120548591036102ac5760405163d54d626360e01b815260048101829052602401610272565b5f8581526001602081905260409091209081016102ca858783610f25565b5060028101805460ff191684151517905560405186907f474ecb9a635a2caa43d0179379d8776bdbc4cbf4a43b44a3bdf4c26eba367d3e9061031190889088908890610fdf565b60405180910390a2505050505050565b61034560405180606001604052805f8152602001606081526020015f151581525090565b5f828152600160205260408120548391036103765760405163d54d626360e01b815260048101829052602401610272565b5f83815260016020818152604092839020835160608101909452805484529182018054918401916103a690610ea7565b80601f01602080910402602001604051908101604052809291908181526020018280546103d290610ea7565b801561041d5780601f106103f45761010080835404028352916020019161041d565b820191905f5260205f20905b81548152906001019060200180831161040057829003601f168201915b50505091835250506002919091015460ff16151560209091015291505b50919050565b60605f61044d6002610919565b67ffffffffffffffff81111561046557610465610e93565b6040519080825280602002602001820160405280156104ba57816020015b6104a760405180606001604052805f8152602001606081526020015f151581525090565b8152602001906001900390816104835790505b5090505f5b6104c96002610919565b81101561043a5760015f6104de600284610928565b81526020019081526020015f206040518060600160405290815f820154815260200160018201805461050f90610ea7565b80601f016020809104026020016040519081016040528092919081815260200182805461053b90610ea7565b80156105865780601f1061055d57610100808354040283529160200191610586565b820191905f5260205f20905b81548152906001019060200180831161056957829003601f168201915b50505091835250506002919091015460ff16151560209091015282518390839081106105b4576105b4611016565b60209081029190910101526001016104bf565b6040516301fd3f7760e71b81523360048201525f907f00000000000000000000000000000000000000000000000000000000000000006001600160a01b03169063fe9fbb8090602401602060405180830381865afa15801561062b573d5f803e3d5ffd5b505050506040513d601f19601f8201168201806040525081019061064f9190610e78565b61066e57604051633733be5960e21b8152336004820152602401610272565b6106ae84848080601f0160208091040260200160405190810160405280939291908181526020018383808284375f9201919091525086925061093a915050565b949350505050565b6040516301fd3f7760e71b81523360048201527f00000000000000000000000000000000000000000000000000000000000000006001600160a01b03169063fe9fbb8090602401602060405180830381865afa158015610718573d5f803e3d5ffd5b505050506040513d601f19601f8201168201806040525081019061073c9190610e78565b61075b57604051633733be5960e21b8152336004820152602401610272565b5f8181526001602052604081205482910361078c5760405163d54d626360e01b815260048101829052602401610272565b60036107986002610919565b10156107f75760405163c50656df60e01b815260206004820152602760248201527f4174206c656173742032206f7267616e697a6174696f6e73206d7573742062656044820152662061637469766560c81b6064820152608401610272565b5f8281526001602081905260408220828155919061081790830182610bcc565b506002908101805460ff1916905561082f90836109fc565b5060405182907ff27d25b655cb03d0ed4d8ec4d8052f4e032e323945fd003c8a41818acbfabcbb905f90a25050565b606061086a6002610a07565b905090565b600160208190525f91825260409091208054918101805461088f90610ea7565b80601f01602080910402602001604051908101604052809291908181526020018280546108bb90610ea7565b80156109065780601f106108dd57610100808354040283529160200191610906565b820191905f5260205f20905b8154815290600101906020018083116108e957829003601f168201915b5050506002909301549192505060ff1683565b5f610922825490565b92915050565b5f6109338383610a13565b9392505050565b5f805f8081546109499061103e565b9182905550604080516060810182528281526020808201888152871515838501525f8581526001928390529390932082518155925193945090928392918201906109939082611056565b50604091909101516002918201805460ff19169115159190911790556109b99083610a39565b50817f4dad03b1061978f376a9ac9d5b3957eba0a96407252f23c6fe707d65631a5bd586866040516109ec929190611111565b60405180910390a2509392505050565b5f6109338383610a44565b60605f61093383610b27565b5f825f018281548110610a2857610a28611016565b905f5260205f200154905092915050565b5f6109338383610b80565b5f8181526001830160205260408120548015610b1e575f610a66600183611134565b85549091505f90610a7990600190611134565b9050808214610ad8575f865f018281548110610a9757610a97611016565b905f5260205f200154905080875f018481548110610ab757610ab7611016565b5f918252602080832090910192909255918252600188019052604090208390555b8554869080610ae957610ae9611147565b600190038181905f5260205f20015f90559055856001015f8681526020019081526020015f205f905560019350505050610922565b5f915050610922565b6060815f01805480602002602001604051908101604052809291908181526020018280548015610b7457602002820191905f5260205f20905b815481526020019060010190808311610b60575b50505050509050919050565b5f818152600183016020526040812054610bc557508154600181810184555f848152602080822090930184905584548482528286019093526040902091909155610922565b505f610922565b508054610bd890610ea7565b5f825580601f10610be7575050565b601f0160209004905f5260205f2090810190610c039190610c06565b50565b5b80821115610c1a575f8155600101610c07565b5090565b5f60208284031215610c2e575f80fd5b5035919050565b5f8083601f840112610c45575f80fd5b50813567ffffffffffffffff811115610c5c575f80fd5b602083019150836020828501011115610c73575f80fd5b9250929050565b8015158114610c03575f80fd5b5f805f8060608587031215610c9a575f80fd5b84359350602085013567ffffffffffffffff811115610cb7575f80fd5b610cc387828801610c35565b9094509250506040850135610cd781610c7a565b939692955090935050565b5f81518084528060208401602086015e5f602082860101526020601f19601f83011685010191505092915050565b805182525f602082015160606020850152610d2e6060850182610ce2565b6040938401511515949093019390935250919050565b602081525f6109336020830184610d10565b5f602082016020835280845180835260408501915060408160051b8601019250602086015f5b82811015610dad57603f19878603018452610d98858351610d10565b94506020938401939190910190600101610d7c565b50929695505050505050565b5f805f60408486031215610dcb575f80fd5b833567ffffffffffffffff811115610de1575f80fd5b610ded86828701610c35565b9094509250506020840135610e0181610c7a565b809150509250925092565b602080825282518282018190525f918401906040840190835b81811015610e43578351835260209384019390920191600101610e25565b509095945050505050565b838152606060208201525f610e666060830185610ce2565b90508215156040830152949350505050565b5f60208284031215610e88575f80fd5b815161093381610c7a565b634e487b7160e01b5f52604160045260245ffd5b600181811c90821680610ebb57607f821691505b60208210810361043a57634e487b7160e01b5f52602260045260245ffd5b601f821115610f2057805f5260205f20601f840160051c81016020851015610efe5750805b601f840160051c820191505b81811015610f1d575f8155600101610f0a565b50505b505050565b67ffffffffffffffff831115610f3d57610f3d610e93565b610f5183610f4b8354610ea7565b83610ed9565b5f601f841160018114610f82575f8515610f6b5750838201355b5f19600387901b1c1916600186901b178355610f1d565b5f83815260208120601f198716915b82811015610fb15786850135825560209485019460019092019101610f91565b5086821015610fcd575f1960f88860031b161c19848701351681555b505060018560011b0183555050505050565b60408152826040820152828460608301375f60608483018101919091529115156020820152601f909201601f191690910101919050565b634e487b7160e01b5f52603260045260245ffd5b634e487b7160e01b5f52601160045260245ffd5b5f6001820161104f5761104f61102a565b5060010190565b815167ffffffffffffffff81111561107057611070610e93565b6110848161107e8454610ea7565b84610ed9565b6020601f8211600181146110b6575f831561109f5750848201515b5f19600385901b1c1916600184901b178455610f1d565b5f84815260208120601f198516915b828110156110e557878501518255602094850194600190920191016110c5565b508482101561110257868401515f19600387901b60f8161c191681555b50505050600190811b01905550565b604081525f6111236040830185610ce2565b905082151560208301529392505050565b818103818111156109225761092261102a565b634e487b7160e01b5f52603160045260245ffdfea2646970667358221220e718b21e02e82d29cd041eb9162e97307199944ff3a202282051e14897131d5a64736f6c634300081a0033","linkReferences":{}},"methodIdentifiers":{"addOrganization(string,bool)":"aac271bf","admins()":"a5de3619","deleteOrganization(uint256)":"dc1301af","getOrganization(uint256)":"4526f690","getOrganizations()":"9754a3a8","idSeed()":"136cf162","isOrganizationActive(uint256)":"2e9e006c","organizationIds()":"dd67826e","organizations(uint256)":"e792dd8a","updateOrganization(uint256,string,bool)":"37c55052"},"id":37}