{"abi":[{"type":"function","name":"addOrganization","inputs":[{"name":"name","type":"string","internalType":"string"},{"name":"canVote","type":"bool","internalType":"bool"}],"outputs":[{"name":"","type":"uint256","internalType":"uint256"}],"stateMutability":"nonpayable"},{"type":"function","name":"deleteOrganization","inputs":[{"name":"orgId","type":"uint256","internalType":"uint256"}],"outputs":[],"stateMutability":"nonpayable"},{"type":"function","name":"getOrganization","inputs":[{"name":"orgId","type":"uint256","internalType":"uint256"}],"outputs":[{"name":"","type":"tuple","internalType":"struct Organization.OrganizationData","components":[{"name":"id","type":"uint256","internalType":"uint256"},{"name":"name","type":"string","internalType":"string"},{"name":"canVote","type":"bool","internalType":"bool"}]}],"stateMutability":"view"},{"type":"function","name":"getOrganizations","inputs":[],"outputs":[{"name":"","type":"tuple[]","internalType":"struct Organization.OrganizationData[]","components":[{"name":"id","type":"uint256","internalType":"uint256"},{"name":"name","type":"string","internalType":"string"},{"name":"canVote","type":"bool","internalType":"bool"}]}],"stateMutability":"view"},{"type":"function","name":"isOrganizationActive","inputs":[{"name":"orgId","type":"uint256","internalType":"uint256"}],"outputs":[{"name":"","type":"bool","internalType":"bool"}],"stateMutability":"view"},{"type":"function","name":"updateOrganization","inputs":[{"name":"orgId","type":"uint256","internalType":"uint256"},{"name":"name","type":"string","internalType":"string"},{"name":"canVote","type":"bool","internalType":"bool"}],"outputs":[],"stateMutability":"nonpayable"},{"type":"event","name":"OrganizationAdded","inputs":[{"name":"orgId","type":"uint256","indexed":true,"internalType":"uint256"},{"name":"name","type":"string","indexed":false,"internalType":"string"},{"name":"canVote","type":"bool","indexed":false,"internalType":"bool"}],"anonymous":false},{"type":"event","name":"OrganizationDeleted","inputs":[{"name":"orgId","type":"uint256","indexed":true,"internalType":"uint256"}],"anonymous":false},{"type":"event","name":"OrganizationUpdated","inputs":[{"name":"orgId","type":"uint256","indexed":true,"internalType":"uint256"},{"name":"name","type":"string","indexed":false,"internalType":"string"},{"name":"canVote","type":"bool","indexed":false,"internalType":"bool"}],"anonymous":false},{"type":"error","name":"IllegalState","inputs":[{"name":"message","type":"string","internalType":"string"}]},{"type":"error","name":"OrganizationNotFound","inputs":[{"name":"orgId","type":"uint256","internalType":"uint256"}]}],"bytecode":{"object":"0x6080604052348015600e575f80fd5b50610bf58061001c5f395ff3fe608060405234801561000f575f80fd5b5060043610610060575f3560e01c80632e9e006c1461006457806337c550521461008c5780634526f690146100a15780639754a3a8146100c1578063aac271bf146100d6578063dc1301af146100f7575b5f80fd5b6100776100723660046107ea565b61010a565b60405190151581526020015b60405180910390f35b61009f61009a36600461085a565b610146565b005b6100b46100af3660046107ea565b610248565b6040516100839190610902565b6100c9610363565b604051610083919061091b565b6100e96100e436600461097e565b6104f5565b604051908152602001610083565b61009f6101053660046107ea565b610668565b5f818152600160205260408120541561012557506001919050565b60405163d54d626360e01b8152600481018390526024015b60405180910390fd5b5f8481526001602052604081205490036101765760405163d54d626360e01b81526004810185905260240161013d565b604051806060016040528085815260200184848080601f0160208091040260200160405190810160405280939291908181526020018383808284375f920182905250938552505050831515602092830152868152600180835260409091208351815591830151908201906101ea9082610a60565b50604091820151600291909101805460ff19169115159190911790555184907f474ecb9a635a2caa43d0179379d8776bdbc4cbf4a43b44a3bdf4c26eba367d3e9061023a90869086908690610b1b565b60405180910390a250505050565b61026c60405180606001604052805f8152602001606081526020015f151581525090565b5f82815260016020526040812054900361029c5760405163d54d626360e01b81526004810183905260240161013d565b5f82815260016020818152604092839020835160608101909452805484529182018054918401916102cc906109e2565b80601f01602080910402602001604051908101604052809291908181526020018280546102f8906109e2565b80156103435780601f1061031a57610100808354040283529160200191610343565b820191905f5260205f20905b81548152906001019060200180831161032657829003601f168201915b50505091835250506002919091015460ff16151560209091015292915050565b6002546060905f9067ffffffffffffffff811115610383576103836109ce565b6040519080825280602002602001820160405280156103d857816020015b6103c560405180606001604052805f8152602001606081526020015f151581525090565b8152602001906001900390816103a15790505b5090505f5b6002548110156104ef5760015f600283815481106103fd576103fd610b52565b905f5260205f20015481526020019081526020015f206040518060600160405290815f8201548152602001600182018054610437906109e2565b80601f0160208091040260200160405190810160405280929190818152602001828054610463906109e2565b80156104ae5780601f10610485576101008083540402835291602001916104ae565b820191905f5260205f20905b81548152906001019060200180831161049157829003601f168201915b50505091835250506002919091015460ff16151560209091015282518390839081106104dc576104dc610b52565b60209081029190910101526001016103dd565b50919050565b5f8261054d5760405162461bcd60e51b815260206004820152602160248201527f4f7267616e697a6174696f6e206e616d652063616e6e6f7420626520656d70746044820152607960f81b606482015260840161013d565b5f805f815461055b90610b7a565b9190508190559050604051806060016040528082815260200186868080601f0160208091040260200160405190810160405280939291908181526020018383808284375f920182905250938552505050851515602092830152838152600180835260409091208351815591830151908201906105d79082610a60565b506040918201516002918201805460ff191691151591909117905580546001810182555f919091527f405787fa12a823e0f2b7631cc41b3ba8828b3321ca811111fa75cd3aa3bb5ace018290555181907f4dad03b1061978f376a9ac9d5b3957eba0a96407252f23c6fe707d65631a5bd59061065890889088908890610b1b565b60405180910390a2949350505050565b5f8181526001602052604081205490036106985760405163d54d626360e01b81526004810182905260240161013d565b5f818152600160208190526040822082815591906106b890830182610798565b50600201805460ff191690555f5b60025481101561076a5781600282815481106106e4576106e4610b52565b905f5260205f20015403610762576002805461070290600190610b92565b8154811061071257610712610b52565b905f5260205f2001546002828154811061072e5761072e610b52565b5f91825260209091200155600280548061074a5761074a610bab565b600190038181905f5260205f20015f9055905561076a565b6001016106c6565b5060405181907ff27d25b655cb03d0ed4d8ec4d8052f4e032e323945fd003c8a41818acbfabcbb905f90a250565b5080546107a4906109e2565b5f825580601f106107b3575050565b601f0160209004905f5260205f20908101906107cf91906107d2565b50565b5b808211156107e6575f81556001016107d3565b5090565b5f602082840312156107fa575f80fd5b5035919050565b5f8083601f840112610811575f80fd5b50813567ffffffffffffffff811115610828575f80fd5b60208301915083602082850101111561083f575f80fd5b9250929050565b80358015158114610855575f80fd5b919050565b5f805f806060858703121561086d575f80fd5b84359350602085013567ffffffffffffffff81111561088a575f80fd5b61089687828801610801565b90945092506108a9905060408601610846565b905092959194509250565b805182525f60208201516060602085015280518060608601528060208301608087015e5f608082870101526040840151151560408601526080601f19601f8301168601019250505092915050565b602081525f61091460208301846108b4565b9392505050565b5f602082016020835280845180835260408501915060408160051b8601019250602086015f5b8281101561097257603f1987860301845261095d8583516108b4565b94506020938401939190910190600101610941565b50929695505050505050565b5f805f60408486031215610990575f80fd5b833567ffffffffffffffff8111156109a6575f80fd5b6109b286828701610801565b90945092506109c5905060208501610846565b90509250925092565b634e487b7160e01b5f52604160045260245ffd5b600181811c908216806109f657607f821691505b6020821081036104ef57634e487b7160e01b5f52602260045260245ffd5b601f821115610a5b57805f5260205f20601f840160051c81016020851015610a395750805b601f840160051c820191505b81811015610a58575f8155600101610a45565b50505b505050565b815167ffffffffffffffff811115610a7a57610a7a6109ce565b610a8e81610a8884546109e2565b84610a14565b6020601f821160018114610ac0575f8315610aa95750848201515b5f19600385901b1c1916600184901b178455610a58565b5f84815260208120601f198516915b82811015610aef5787850151825560209485019460019092019101610acf565b5084821015610b0c57868401515f19600387901b60f8161c191681555b50505050600190811b01905550565b60408152826040820152828460608301375f60608483018101919091529115156020820152601f909201601f191690910101919050565b634e487b7160e01b5f52603260045260245ffd5b634e487b7160e01b5f52601160045260245ffd5b5f60018201610b8b57610b8b610b66565b5060010190565b81810381811115610ba557610ba5610b66565b92915050565b634e487b7160e01b5f52603160045260245ffdfea2646970667358221220996e87d9af1bfbe63bcfca64923d33d77666dee8823dc5faf6f1408d00dfb67364736f6c634300081a0033","linkReferences":{}},"methodIdentifiers":{"addOrganization(string,bool)":"aac271bf","deleteOrganization(uint256)":"dc1301af","getOrganization(uint256)":"4526f690","getOrganizations()":"9754a3a8","isOrganizationActive(uint256)":"2e9e006c","updateOrganization(uint256,string,bool)":"37c55052"},"id":19}