{"abi":[{"type":"function","name":"getAllAuthorizedAddresses","inputs":[],"outputs":[{"name":"","type":"address[]","internalType":"address[]"}],"stateMutability":"view"},{"type":"function","name":"isAValidAddress","inputs":[{"name":"source","type":"address","internalType":"address"}],"outputs":[{"name":"","type":"bool","internalType":"bool"}],"stateMutability":"nonpayable"},{"type":"function","name":"isAuthorized","inputs":[{"name":"source","type":"address","internalType":"address"}],"outputs":[{"name":"","type":"bool","internalType":"bool"}],"stateMutability":"view"},{"type":"function","name":"setAuthorized","inputs":[{"name":"source","type":"address","internalType":"address"},{"name":"status","type":"bool","internalType":"bool"}],"outputs":[],"stateMutability":"nonpayable"},{"type":"error","name":"InvalidSourceAddress","inputs":[{"name":"addr","type":"address","internalType":"address"}]}],"bytecode":{"object":"0x6080604052348015600e575f80fd5b506104238061001c5f395ff3fe608060405234801561000f575f80fd5b506004361061004a575f3560e01c8063143e4c6e1461004e578063711bf9b214610076578063f794bdeb146100f1578063fe9fbb8014610106575b5f80fd5b61006161005c3660046102fd565b610131565b60405190151581526020015b60405180910390f35b6100ef61008436600461031d565b6001600160a01b03919091165f818152602081905260408120805460ff19169315159390931790925560018054808201825592527fb10e2d527612073b26eecdfd717e6a320cf44b4afac2b0732d9fcbe2b7fa0cf690910180546001600160a01b0319169091179055565b005b6100f9610170565b60405161006d9190610356565b6100616101143660046102fd565b6001600160a01b03165f9081526020819052604090205460ff1690565b5f6001600160a01b038216610168576040516398785edb60e01b81526001600160a01b038316600482015260240160405180910390fd5b506001919050565b60605f805b6001548110156101d6575f8060018381548110610194576101946103a1565b5f9182526020808320909101546001600160a01b0316835282019290925260400190205460ff16156101ce57816101ca816103b5565b9250505b600101610175565b505f8167ffffffffffffffff8111156101f1576101f16103d9565b60405190808252806020026020018201604052801561021a578160200160208202803683370190505b5090505f805b6001548110156102d9575f806001838154811061023f5761023f6103a1565b5f9182526020808320909101546001600160a01b0316835282019290925260400190205460ff16156102d1576001818154811061027e5761027e6103a1565b905f5260205f20015f9054906101000a90046001600160a01b03168383815181106102ab576102ab6103a1565b6001600160a01b0390921660209283029190910190910152816102cd816103b5565b9250505b600101610220565b50909392505050565b80356001600160a01b03811681146102f8575f80fd5b919050565b5f6020828403121561030d575f80fd5b610316826102e2565b9392505050565b5f806040838503121561032e575f80fd5b610337836102e2565b91506020830135801515811461034b575f80fd5b809150509250929050565b602080825282518282018190525f918401906040840190835b818110156103965783516001600160a01b031683526020938401939092019160010161036f565b509095945050505050565b634e487b7160e01b5f52603260045260245ffd5b5f600182016103d257634e487b7160e01b5f52601160045260245ffd5b5060010190565b634e487b7160e01b5f52604160045260245ffdfea2646970667358221220f92505b5e93e946fa41f3c258659b0b355a1d500999697b3d84ca390f03484a164736f6c634300081a0033","linkReferences":{}},"methodIdentifiers":{"getAllAuthorizedAddresses()":"f794bdeb","isAValidAddress(address)":"143e4c6e","isAuthorized(address)":"fe9fbb80","setAuthorized(address,bool)":"711bf9b2"},"id":38}