{"abi":[{"type":"function","name":"connectionAllowed","inputs":[{"name":"sourceEnodeHigh","type":"bytes32","internalType":"bytes32"},{"name":"sourceEnodeLow","type":"bytes32","internalType":"bytes32"},{"name":"sourceEnodeIp","type":"bytes16","internalType":"bytes16"},{"name":"sourceEnodePort","type":"uint16","internalType":"uint16"},{"name":"destinationEnodeHigh","type":"bytes32","internalType":"bytes32"},{"name":"destinationEnodeLow","type":"bytes32","internalType":"bytes32"},{"name":"destinationEnodeIp","type":"bytes16","internalType":"bytes16"},{"name":"destinationEnodePort","type":"uint16","internalType":"uint16"}],"outputs":[{"name":"","type":"bytes32","internalType":"bytes32"}],"stateMutability":"view"},{"type":"function","name":"setConnectionResult","inputs":[{"name":"sourceEnodeHigh","type":"bytes32","internalType":"bytes32"},{"name":"sourceEnodeLow","type":"bytes32","internalType":"bytes32"},{"name":"sourceEnodeIp","type":"bytes16","internalType":"bytes16"},{"name":"sourceEnodePort","type":"uint16","internalType":"uint16"},{"name":"destinationEnodeHigh","type":"bytes32","internalType":"bytes32"},{"name":"destinationEnodeLow","type":"bytes32","internalType":"bytes32"},{"name":"destinationEnodeIp","type":"bytes16","internalType":"bytes16"},{"name":"destinationEnodePort","type":"uint16","internalType":"uint16"},{"name":"result","type":"bytes32","internalType":"bytes32"}],"outputs":[],"stateMutability":"nonpayable"}],"bytecode":{"object":"0x6080604052348015600e575f80fd5b506102c98061001c5f395ff3fe608060405234801561000f575f80fd5b5060043610610034575f3560e01c80633620b1df14610038578063ada7b8071461005d575b5f80fd5b61004b610046366004610142565b610072565b60405190815260200160405180910390f35b61007061006b3660046101b8565b6100c4565b005b5f80898989898989898960405160200161009398979695949392919061023a565b60408051808303601f1901815291815281516020928301205f908152918290529020549a9950505050505050505050565b5f89898989898989896040516020016100e498979695949392919061023a565b60408051601f1981840301815291815281516020928301205f90815291829052902091909155505050505050505050565b80356001600160801b03198116811461012c575f80fd5b919050565b803561ffff8116811461012c575f80fd5b5f805f805f805f80610100898b03121561015a575f80fd5b883597506020890135965061017160408a01610115565b955061017f60608a01610131565b94506080890135935060a0890135925061019b60c08a01610115565b91506101a960e08a01610131565b90509295985092959890939650565b5f805f805f805f805f6101208a8c0312156101d1575f80fd5b8935985060208a013597506101e860408b01610115565b96506101f660608b01610131565b955060808a0135945060a08a0135935061021260c08b01610115565b925061022060e08b01610131565b989b979a5095989497939692955090936101000135919050565b97885260208801969096526001600160801b031994851660408801526001600160f01b031960f094851b811660508901526052880193909352607287019190915290921660928501529190911b1660a282015260a4019056fea2646970667358221220456957b06f16cc706fcf10d3e46d442fd9a09ee4ccc6d7e26523724cca3d4d6264736f6c634300081a0033","linkReferences":{}},"methodIdentifiers":{"connectionAllowed(bytes32,bytes32,bytes16,uint16,bytes32,bytes32,bytes16,uint16)":"3620b1df","setConnectionResult(bytes32,bytes32,bytes16,uint16,bytes32,bytes32,bytes16,uint16,bytes32)":"ada7b807"},"id":19}