{"abi":[{"type":"constructor","inputs":[{"name":"orgs","type":"address","internalType":"contract Organization"},{"name":"accs","type":"address[]","internalType":"address[]"},{"name":"adminsProxy","type":"address","internalType":"contract AdminProxy"}],"stateMutability":"nonpayable"},{"type":"function","name":"DEFAULT_ADMIN_ROLE","inputs":[],"outputs":[{"name":"","type":"bytes32","internalType":"bytes32"}],"stateMutability":"view"},{"type":"function","name":"accounts","inputs":[{"name":"","type":"address","internalType":"address"}],"outputs":[{"name":"orgId","type":"uint256","internalType":"uint256"},{"name":"account","type":"address","internalType":"address"},{"name":"roleId","type":"bytes32","internalType":"bytes32"},{"name":"dataHash","type":"bytes32","internalType":"bytes32"},{"name":"active","type":"bool","internalType":"bool"}],"stateMutability":"view"},{"type":"function","name":"addAccount","inputs":[{"name":"account","type":"address","internalType":"address"},{"name":"orgId","type":"uint256","internalType":"uint256"},{"name":"roleId","type":"bytes32","internalType":"bytes32"},{"name":"dataHash","type":"bytes32","internalType":"bytes32"}],"outputs":[],"stateMutability":"nonpayable"},{"type":"function","name":"addLocalAccount","inputs":[{"name":"account","type":"address","internalType":"address"},{"name":"roleId","type":"bytes32","internalType":"bytes32"},{"name":"dataHash","type":"bytes32","internalType":"bytes32"}],"outputs":[],"stateMutability":"nonpayable"},{"type":"function","name":"admins","inputs":[],"outputs":[{"name":"","type":"address","internalType":"contract AdminProxy"}],"stateMutability":"view"},{"type":"function","name":"deleteAccount","inputs":[{"name":"account","type":"address","internalType":"address"}],"outputs":[],"stateMutability":"nonpayable"},{"type":"function","name":"deleteLocalAccount","inputs":[{"name":"account","type":"address","internalType":"address"}],"outputs":[],"stateMutability":"nonpayable"},{"type":"function","name":"getAccount","inputs":[{"name":"account","type":"address","internalType":"address"}],"outputs":[{"name":"","type":"tuple","internalType":"struct AccountRulesV2.AccountData","components":[{"name":"orgId","type":"uint256","internalType":"uint256"},{"name":"account","type":"address","internalType":"address"},{"name":"roleId","type":"bytes32","internalType":"bytes32"},{"name":"dataHash","type":"bytes32","internalType":"bytes32"},{"name":"active","type":"bool","internalType":"bool"}]}],"stateMutability":"view"},{"type":"function","name":"getAccounts","inputs":[{"name":"page","type":"uint256","internalType":"uint256"},{"name":"pageSize","type":"uint256","internalType":"uint256"}],"outputs":[{"name":"","type":"tuple[]","internalType":"struct AccountRulesV2.AccountData[]","components":[{"name":"orgId","type":"uint256","internalType":"uint256"},{"name":"account","type":"address","internalType":"address"},{"name":"roleId","type":"bytes32","internalType":"bytes32"},{"name":"dataHash","type":"bytes32","internalType":"bytes32"},{"name":"active","type":"bool","internalType":"bool"}]}],"stateMutability":"view"},{"type":"function","name":"getAccountsByOrg","inputs":[{"name":"orgId","type":"uint256","internalType":"uint256"},{"name":"page","type":"uint256","internalType":"uint256"},{"name":"pageSize","type":"uint256","internalType":"uint256"}],"outputs":[{"name":"","type":"tuple[]","internalType":"struct AccountRulesV2.AccountData[]","components":[{"name":"orgId","type":"uint256","internalType":"uint256"},{"name":"account","type":"address","internalType":"address"},{"name":"roleId","type":"bytes32","internalType":"bytes32"},{"name":"dataHash","type":"bytes32","internalType":"bytes32"},{"name":"active","type":"bool","internalType":"bool"}]}],"stateMutability":"view"},{"type":"function","name":"getNumberOfAccounts","inputs":[],"outputs":[{"name":"","type":"uint256","internalType":"uint256"}],"stateMutability":"view"},{"type":"function","name":"getNumberOfAccountsByOrg","inputs":[{"name":"orgId","type":"uint256","internalType":"uint256"}],"outputs":[{"name":"","type":"uint256","internalType":"uint256"}],"stateMutability":"view"},{"type":"function","name":"getRoleAdmin","inputs":[{"name":"role","type":"bytes32","internalType":"bytes32"}],"outputs":[{"name":"","type":"bytes32","internalType":"bytes32"}],"stateMutability":"view"},{"type":"function","name":"globalAdminsCount","inputs":[{"name":"","type":"uint256","internalType":"uint256"}],"outputs":[{"name":"","type":"uint256","internalType":"uint256"}],"stateMutability":"view"},{"type":"function","name":"grantRole","inputs":[{"name":"role","type":"bytes32","internalType":"bytes32"},{"name":"account","type":"address","internalType":"address"}],"outputs":[],"stateMutability":"nonpayable"},{"type":"function","name":"hasRole","inputs":[{"name":"role","type":"bytes32","internalType":"bytes32"},{"name":"account","type":"address","internalType":"address"}],"outputs":[{"name":"","type":"bool","internalType":"bool"}],"stateMutability":"view"},{"type":"function","name":"isAccountActive","inputs":[{"name":"account","type":"address","internalType":"address"}],"outputs":[{"name":"","type":"bool","internalType":"bool"}],"stateMutability":"view"},{"type":"function","name":"organizations","inputs":[],"outputs":[{"name":"","type":"address","internalType":"contract Organization"}],"stateMutability":"view"},{"type":"function","name":"renounceRole","inputs":[{"name":"role","type":"bytes32","internalType":"bytes32"},{"name":"callerConfirmation","type":"address","internalType":"address"}],"outputs":[],"stateMutability":"nonpayable"},{"type":"function","name":"restrictedAccounts","inputs":[],"outputs":[{"name":"","type":"address[]","internalType":"address[]"}],"stateMutability":"view"},{"type":"function","name":"restrictedAccountsAllowedTargets","inputs":[{"name":"","type":"address","internalType":"address"},{"name":"","type":"uint256","internalType":"uint256"}],"outputs":[{"name":"","type":"address","internalType":"address"}],"stateMutability":"view"},{"type":"function","name":"restrictedSmartContracts","inputs":[],"outputs":[{"name":"","type":"address[]","internalType":"address[]"}],"stateMutability":"view"},{"type":"function","name":"restrictedSmartContractsAllowedSenders","inputs":[{"name":"","type":"address","internalType":"address"},{"name":"","type":"uint256","internalType":"uint256"}],"outputs":[{"name":"","type":"address","internalType":"address"}],"stateMutability":"view"},{"type":"function","name":"revokeRole","inputs":[{"name":"role","type":"bytes32","internalType":"bytes32"},{"name":"account","type":"address","internalType":"address"}],"outputs":[],"stateMutability":"nonpayable"},{"type":"function","name":"setAccountTargetAccess","inputs":[{"name":"account","type":"address","internalType":"address"},{"name":"restricted","type":"bool","internalType":"bool"},{"name":"allowedTargets","type":"address[]","internalType":"address[]"}],"outputs":[],"stateMutability":"nonpayable"},{"type":"function","name":"setSmartContractSenderAccess","inputs":[{"name":"smartContract","type":"address","internalType":"address"},{"name":"restricted","type":"bool","internalType":"bool"},{"name":"allowedSenders","type":"address[]","internalType":"address[]"}],"outputs":[],"stateMutability":"nonpayable"},{"type":"function","name":"supportsInterface","inputs":[{"name":"interfaceId","type":"bytes4","internalType":"bytes4"}],"outputs":[{"name":"","type":"bool","internalType":"bool"}],"stateMutability":"view"},{"type":"function","name":"transactionAllowed","inputs":[{"name":"sender","type":"address","internalType":"address"},{"name":"target","type":"address","internalType":"address"},{"name":"","type":"uint256","internalType":"uint256"},{"name":"","type":"uint256","internalType":"uint256"},{"name":"","type":"uint256","internalType":"uint256"},{"name":"","type":"bytes","internalType":"bytes"}],"outputs":[{"name":"","type":"bool","internalType":"bool"}],"stateMutability":"view"},{"type":"function","name":"updateLocalAccount","inputs":[{"name":"account","type":"address","internalType":"address"},{"name":"roleId","type":"bytes32","internalType":"bytes32"},{"name":"dataHash","type":"bytes32","internalType":"bytes32"}],"outputs":[],"stateMutability":"nonpayable"},{"type":"function","name":"updateLocalAccountStatus","inputs":[{"name":"account","type":"address","internalType":"address"},{"name":"active","type":"bool","internalType":"bool"}],"outputs":[],"stateMutability":"nonpayable"},{"type":"function","name":"validRoles","inputs":[{"name":"","type":"bytes32","internalType":"bytes32"}],"outputs":[{"name":"","type":"bool","internalType":"bool"}],"stateMutability":"view"},{"type":"event","name":"AccountAdded","inputs":[{"name":"account","type":"address","indexed":true,"internalType":"address"},{"name":"orgId","type":"uint256","indexed":true,"internalType":"uint256"},{"name":"roleId","type":"bytes32","indexed":false,"internalType":"bytes32"},{"name":"dataHash","type":"bytes32","indexed":false,"internalType":"bytes32"},{"name":"admin","type":"address","indexed":false,"internalType":"address"}],"anonymous":false},{"type":"event","name":"AccountDeleted","inputs":[{"name":"account","type":"address","indexed":true,"internalType":"address"},{"name":"orgId","type":"uint256","indexed":true,"internalType":"uint256"},{"name":"admin","type":"address","indexed":false,"internalType":"address"}],"anonymous":false},{"type":"event","name":"AccountStatusUpdated","inputs":[{"name":"account","type":"address","indexed":true,"internalType":"address"},{"name":"orgId","type":"uint256","indexed":true,"internalType":"uint256"},{"name":"active","type":"bool","indexed":false,"internalType":"bool"},{"name":"admin","type":"address","indexed":false,"internalType":"address"}],"anonymous":false},{"type":"event","name":"AccountTargetAccessUpdated","inputs":[{"name":"account","type":"address","indexed":true,"internalType":"address"},{"name":"restricted","type":"bool","indexed":true,"internalType":"bool"},{"name":"allowedTargets","type":"address[]","indexed":false,"internalType":"address[]"},{"name":"admin","type":"address","indexed":false,"internalType":"address"}],"anonymous":false},{"type":"event","name":"AccountUpdated","inputs":[{"name":"account","type":"address","indexed":true,"internalType":"address"},{"name":"orgId","type":"uint256","indexed":true,"internalType":"uint256"},{"name":"roleId","type":"bytes32","indexed":false,"internalType":"bytes32"},{"name":"dataHash","type":"bytes32","indexed":false,"internalType":"bytes32"},{"name":"admin","type":"address","indexed":false,"internalType":"address"}],"anonymous":false},{"type":"event","name":"RoleAdminChanged","inputs":[{"name":"role","type":"bytes32","indexed":true,"internalType":"bytes32"},{"name":"previousAdminRole","type":"bytes32","indexed":true,"internalType":"bytes32"},{"name":"newAdminRole","type":"bytes32","indexed":true,"internalType":"bytes32"}],"anonymous":false},{"type":"event","name":"RoleGranted","inputs":[{"name":"role","type":"bytes32","indexed":true,"internalType":"bytes32"},{"name":"account","type":"address","indexed":true,"internalType":"address"},{"name":"sender","type":"address","indexed":true,"internalType":"address"}],"anonymous":false},{"type":"event","name":"RoleRevoked","inputs":[{"name":"role","type":"bytes32","indexed":true,"internalType":"bytes32"},{"name":"account","type":"address","indexed":true,"internalType":"address"},{"name":"sender","type":"address","indexed":true,"internalType":"address"}],"anonymous":false},{"type":"event","name":"SmartContractSenderAccessUpdated","inputs":[{"name":"smartContract","type":"address","indexed":true,"internalType":"address"},{"name":"restricted","type":"bool","indexed":true,"internalType":"bool"},{"name":"allowedSenders","type":"address[]","indexed":false,"internalType":"address[]"},{"name":"admin","type":"address","indexed":false,"internalType":"address"}],"anonymous":false},{"type":"error","name":"AccessControlBadConfirmation","inputs":[]},{"type":"error","name":"AccessControlUnauthorizedAccount","inputs":[{"name":"account","type":"address","internalType":"address"},{"name":"neededRole","type":"bytes32","internalType":"bytes32"}]},{"type":"error","name":"AccountNotFound","inputs":[{"name":"account","type":"address","internalType":"address"}]},{"type":"error","name":"DuplicateAccount","inputs":[{"name":"account","type":"address","internalType":"address"}]},{"type":"error","name":"IllegalState","inputs":[{"name":"message","type":"string","internalType":"string"}]},{"type":"error","name":"InactiveAccount","inputs":[{"name":"account","type":"address","internalType":"address"},{"name":"message","type":"string","internalType":"string"}]},{"type":"error","name":"InvalidAccount","inputs":[{"name":"account","type":"address","internalType":"address"},{"name":"message","type":"string","internalType":"string"}]},{"type":"error","name":"InvalidArgument","inputs":[{"name":"message","type":"string","internalType":"string"}]},{"type":"error","name":"InvalidHash","inputs":[{"name":"hash","type":"bytes32","internalType":"bytes32"},{"name":"message","type":"string","internalType":"string"}]},{"type":"error","name":"InvalidOrganization","inputs":[{"name":"orgId","type":"uint256","internalType":"uint256"},{"name":"message","type":"string","internalType":"string"}]},{"type":"error","name":"InvalidRole","inputs":[{"name":"roleId","type":"bytes32","internalType":"bytes32"},{"name":"message","type":"string","internalType":"string"}]},{"type":"error","name":"InvalidSenderAddress","inputs":[{"name":"sender","type":"address","internalType":"address"}]},{"type":"error","name":"InvalidTargetAddress","inputs":[{"name":"target","type":"address","internalType":"address"}]},{"type":"error","name":"NotLocalAccount","inputs":[{"name":"account","type":"address","internalType":"address"}]},{"type":"error","name":"UnauthorizedAccess","inputs":[{"name":"account","type":"address","internalType":"address"}]}],"bytecode":{"object":"0x60c060405234801561000f575f80fd5b5060405161319f38038061319f83398101604081905261002e91610634565b806001600160a01b0381166100b05760405162461bcd60e51b815260206004820152603360248201527f496e76616c6964206164647265737320666f722041646d696e206d616e61676560448201527f6d656e7420736d61727420636f6e74726163740000000000000000000000000060648201526084015b60405180910390fd5b6001600160a01b03908116608052831661013357604051631fff1b3b60e21b815260206004820152603a60248201527f496e76616c6964206164647265737320666f72204f7267616e697a6174696f6e60448201527f206d616e6167656d656e7420736d61727420636f6e747261637400000000000060648201526084016100a7565b60028251101561018657604051631fff1b3b60e21b815260206004820152601e60248201527f4174206c656173742032206163636f756e7473206d757374206578697374000060448201526064016100a7565b6001600160a01b03831660a0525f5b82518110156101ee575f8382815181106101b1576101b1610722565b602002602001015190505f8260016101c99190610736565b90506101e482825f8051602061317f8339815191525f6102cc565b5050600101610195565b5050600660205250507f3bfd5d6811cd880ec2847c0954b2e15b620a5671be2041183323cb226fe4927e8054600160ff1991821681179092557f816c64b50533cdc4ff23f164b44cfdac36361ac500fb25ae7f5dedba60178a4880548216831790557f63c5f4c78d8273c29df67c6b0912e7d17e13bb6ee538ba4f5dfe200b290617ba80548216831790557f14823911f2da1b49f045a0929a60b8c1f2a7fc8c06c7284ca3e8ab4e193a08c85f527f7f6f04f9553907862f17ddfbae42960d339ee65c0885968ed7b983cb8114384780549091169091179055610755565b6102d6828261040f565b6040805160a0810182528481526001600160a01b038681166020808401828152848601888152606086018881526001608088018181525f968752948190529790942086518155915196820180546001600160a01b031916979095169690961790935593516002808401919091559051600383015592516004909101805460ff19169115159190911790559061036b90866104b1565b505f84815260046020526040902061038390866104b1565b5061038e83866104ce565b506103998484610575565b805f015181602001516001600160a01b03167fac9221d47758dfabe102013bb4d7f5bfac967cfe32746a1504d44f690227703283604001518460600151336040516104009392919092835260208301919091526001600160a01b0316604082015260600190565b60405180910390a35050505050565b8015801561042a57505f8051602061317f8339815191528214155b801561045657507fb7f8beecafe1ad662cec1153812612581a86b9460f21b876f3ee163141203dcb8214155b156104ad578060405163dde87c7d60e01b81526004016100a79181526040602082018190526017908201527f4461746120686173682063616e6e6f7420626520307830000000000000000000606082015260800190565b5050565b5f6104c5836001600160a01b0384166105b4565b90505b92915050565b5f828152602081815260408083206001600160a01b038516845290915281205460ff1661056e575f838152602081815260408083206001600160a01b03861684529091529020805460ff191660011790556105263390565b6001600160a01b0316826001600160a01b0316847f2f8788117e7eff1d82e926ec794901d17c78024a50270940304540a733656f0d60405160405180910390a45060016104c8565b505f6104c8565b5f8051602061317f83398151915281036104ad575f828152600560205260409020546105a2906001610736565b5f838152600560205260409020555050565b5f81815260018301602052604081205461056e57508154600181810184555f8481526020808220909301849055845484825282860190935260409020919091556104c8565b6001600160a01b038116811461060d575f80fd5b50565b634e487b7160e01b5f52604160045260245ffd5b805161062f816105f9565b919050565b5f805f60608486031215610646575f80fd5b8351610651816105f9565b60208501519093506001600160401b0381111561066c575f80fd5b8401601f8101861361067c575f80fd5b80516001600160401b0381111561069557610695610610565b604051600582901b90603f8201601f191681016001600160401b03811182821017156106c3576106c3610610565b6040529182526020818401810192908101898411156106e0575f80fd5b6020850194505b83851015610706576106f885610624565b8152602094850194016106e7565b5094506107199250505060408501610624565b90509250925092565b634e487b7160e01b5f52603260045260245ffd5b808201808211156104c857634e487b7160e01b5f52601160045260245ffd5b60805160a0516129e66107995f395f81816102350152818161083901526116b001525f81816104450152818161071e01528181610b83015261176001526129e65ff3fe608060405234801561000f575f80fd5b50600436106101dc575f3560e01c80636d3ed5b311610109578063ab9d0cdd1161009e578063dfc2d5aa1161006e578063dfc2d5aa146104c0578063e68a7c3b146104c8578063fb0f857e146104db578063fbcbc0f1146104fd575f80fd5b8063ab9d0cdd14610467578063c91744241461047a578063d0420a141461049a578063d547741f146104ad575f80fd5b8063936421d5116100d9578063936421d514610413578063945d961d14610426578063a217fddf14610439578063a5de361914610440575f80fd5b80636d3ed5b3146103c75780636d8498c6146103da5780637003396a146103ed57806391d1485414610400575f80fd5b8063309e36ef1161017f5780634c1b64cb1161014f5780634c1b64cb146103125780634fda87f8146103255780635e5c06e21461033a5780635eba77cf146103b4575f80fd5b8063309e36ef146102c557806336568abe146102cd578063377a5a2d146102e057806344d28525146102f3575f80fd5b8063234db1de116101ba578063234db1de14610230578063248a9ca31461026f57806324efe7411461029f5780632f2ff15d146102b2575f80fd5b806301ffc9a7146101e057806305fa27541461020857806318aa38101461021d575b5f80fd5b6101f36101ee36600461234f565b61051d565b60405190151581526020015b60405180910390f35b61021b610216366004612391565b610553565b005b61021b61022b3660046123c1565b610709565b6102577f000000000000000000000000000000000000000000000000000000000000000081565b6040516001600160a01b0390911681526020016101ff565b61029161027d3660046123f7565b5f9081526020819052604090206001015490565b6040519081526020016101ff565b6102576102ad36600461240e565b610955565b61021b6102c0366004612436565b610989565b6102916109b3565b61021b6102db366004612436565b6109c3565b61021b6102ee366004612460565b6109fb565b6102916103013660046123f7565b60056020525f908152604090205481565b61021b610320366004612460565b610b6e565b61032d610cf5565b6040516101ff9190612479565b610382610348366004612460565b600160208190525f9182526040909120805491810154600282015460038301546004909301546001600160a01b0390921692909160ff1685565b604080519586526001600160a01b0390941660208601529284019190915260608301521515608082015260a0016101ff565b6102916103c23660046123f7565b610d01565b61021b6103d53660046124d1565b610d17565b61021b6103e8366004612391565b611001565b61021b6103fb366004612560565b6112af565b6101f361040e366004612436565b61149d565b6101f3610421366004612595565b6114c5565b61025761043436600461240e565b611658565b6102915f81565b6102577f000000000000000000000000000000000000000000000000000000000000000081565b6101f3610475366004612460565b611671565b61048d610488366004612640565b611728565b6040516101ff91906126a1565b61021b6104a83660046124d1565b61174b565b61021b6104bb366004612436565b6118cf565b61032d6118f3565b61048d6104d63660046126e3565b6118ff565b6101f36104e93660046123f7565b60066020525f908152604090205460ff1681565b61051061050b366004612460565b61190d565b6040516101ff9190612703565b5f6001600160e01b03198216637965db0b60e01b148061054d57506301ffc9a760e01b6001600160e01b03198316145b92915050565b61056a5f805160206129518339815191523361149d565b15801561058b57506105895f805160206129918339815191523361149d565b155b156105b057604051633733be5960e21b81523360048201526024015b60405180910390fd5b6105b933611671565b6105d8573360405163fcbe8fe560e01b81526004016105a79190612711565b826001600160a01b03811661060257806040516312292b4d60e21b81526004016105a79190612780565b6001600160a01b038085165f90815260016020819052604090912001548591161561064b5760405163ebad245d60e01b81526001600160a01b03821660048201526024016105a7565b5f84815260066020526040902054849060ff1661067d5780604051635bc4402b60e01b81526004016105a791906127c1565b845f8051602061295183398151915281036106e45780604051635bc4402b60e01b81526004016105a7918152604060208201819052601f908201527f54686520726f6c652063616e6e6f7420626520676c6f62616c2061646d696e00606082015260800190565b335f9081526001602052604090205461070090889088886119dd565b50505050505050565b6040516301fd3f7760e71b81523360048201527f00000000000000000000000000000000000000000000000000000000000000006001600160a01b03169063fe9fbb8090602401602060405180830381865afa15801561076b573d5f803e3d5ffd5b505050506040513d601f19601f8201168201806040525081019061078f91906127ff565b6107ae57604051633733be5960e21b81523360048201526024016105a7565b836001600160a01b0381166107d857806040516312292b4d60e21b81526004016105a79190612780565b6001600160a01b038086165f9081526001602081905260409091200154869116156108215760405163ebad245d60e01b81526001600160a01b03821660048201526024016105a7565b604051630ba7801b60e21b81526004810186905285907f00000000000000000000000000000000000000000000000000000000000000006001600160a01b031690632e9e006c90602401602060405180830381865afa158015610886573d5f803e3d5ffd5b505050506040513d601f19601f820116820180604052508101906108aa91906127ff565b61090d578060405163515f8b8160e01b81526004016105a79181526040602082018190526024908201527f54686520696e666f726d6564206f7267616e697a6174696f6e20697320756e6b6060820152633737bbb760e11b608082015260a00190565b5f85815260066020526040902054859060ff1661093f5780604051635bc4402b60e01b81526004016105a791906127c1565b61094b888888886119dd565b5050505050505050565b600c602052815f5260405f20818154811061096e575f80fd5b5f918252602090912001546001600160a01b03169150829050565b5f828152602081905260409020600101546109a381611b11565b6109ad8383611b1e565b50505050565b5f6109be6002611bad565b905090565b6001600160a01b03811633146109ec5760405163334bd91960e11b815260040160405180910390fd5b6109f68282611bb6565b505050565b610a125f805160206129518339815191523361149d565b158015610a335750610a315f805160206129918339815191523361149d565b155b15610a5357604051633733be5960e21b81523360048201526024016105a7565b610a5c33611671565b610a7b573360405163fcbe8fe560e01b81526004016105a79190612711565b6001600160a01b038082165f9081526001602081905260409091200154829116610ac3576040516353807e1960e11b81526001600160a01b03821660048201526024016105a7565b6001600160a01b0382165f9081526001602052604080822054338352912054839114610b0d5760405163209b79b360e11b81526001600160a01b03821660048201526024016105a7565b6001600160a01b0383165f9081526001602052604090206002015483905f8051602061297183398151915201610b65575f80516020612951833981519152604051635bc4402b60e01b81526004016105a7919061281a565b6109ad84611c1f565b6040516301fd3f7760e71b81523360048201527f00000000000000000000000000000000000000000000000000000000000000006001600160a01b03169063fe9fbb8090602401602060405180830381865afa158015610bd0573d5f803e3d5ffd5b505050506040513d601f19601f82011682018060405250810190610bf491906127ff565b610c1357604051633733be5960e21b81523360048201526024016105a7565b6001600160a01b038082165f9081526001602081905260409091200154829116610c5b576040516353807e1960e11b81526001600160a01b03821660048201526024016105a7565b6001600160a01b0382165f908152600160209081526040808320548352600590915290205460021115610ce85760405163c50656df60e01b815260206004820152602e60248201527f4174206c65617374203120676c6f62616c2061646d696e6973747261746f722060448201526d6d7573742062652061637469766560901b60648201526084016105a7565b610cf182611c1f565b5050565b60606109be6009611d44565b5f81815260046020526040812061054d90611bad565b610d2e5f805160206129518339815191523361149d565b158015610d4f5750610d4d5f805160206129918339815191523361149d565b155b15610d6f57604051633733be5960e21b81523360048201526024016105a7565b610d7833611671565b610d97573360405163fcbe8fe560e01b81526004016105a79190612711565b6001600160a01b038085165f9081526001602081905260409091200154859116610ddf576040516353807e1960e11b81526001600160a01b03821660048201526024016105a7565b6001600160a01b0385165f9081526001602052604080822054338352912054869114610e295760405163209b79b360e11b81526001600160a01b03821660048201526024016105a7565b6001600160a01b0386165f9081526001602052604090206002015486905f8051602061297183398151915201610e81575f80516020612951833981519152604051635bc4402b60e01b81526004016105a7919061281a565b8515610f21575f849003610eed57604051631fff1b3b60e21b815260206004820152602c60248201527f4174206c65617374206f6e6520616c6c6f77656420746172676574206d75737460448201526b081899481a5b999bdc9b595960a21b60648201526084016105a7565b610ef8600788611d50565b506001600160a01b0387165f908152600b60205260409020610f1b9086866122c3565b50610fb0565b8315610f8457604051631fff1b3b60e21b815260206004820152602b60248201527f4e6f20616c6c6f776564207461726765742073686f756c64206861766520626560448201526a195b881a5b999bdc9b595960aa1b60648201526084016105a7565b610f8f600788611d64565b506001600160a01b0387165f908152600b60205260408120610fb091612324565b851515876001600160a01b03167fad2e1dd15a9a7b46d899f89fb0bd8ace6cf18d382894f4d972105d0ee7202bc5878733604051610ff093929190612863565b60405180910390a350505050505050565b6110185f805160206129518339815191523361149d565b15801561103957506110375f805160206129918339815191523361149d565b155b1561105957604051633733be5960e21b81523360048201526024016105a7565b61106233611671565b611081573360405163fcbe8fe560e01b81526004016105a79190612711565b6001600160a01b038084165f90815260016020819052604090912001548491166110c9576040516353807e1960e11b81526001600160a01b03821660048201526024016105a7565b6001600160a01b0384165f90815260016020526040808220543383529120548591146111135760405163209b79b360e11b81526001600160a01b03821660048201526024016105a7565b6001600160a01b0385165f9081526001602052604090206002015485905f805160206129718339815191520161116b575f80516020612951833981519152604051635bc4402b60e01b81526004016105a7919061281a565b5f85815260066020526040902054859060ff1661119d5780604051635bc4402b60e01b81526004016105a791906127c1565b855f8051602061295183398151915281036112045780604051635bc4402b60e01b81526004016105a7918152604060208201819052601f908201527f54686520726f6c652063616e6e6f7420626520676c6f62616c2061646d696e00606082015260800190565b61120e8787611d78565b6001600160a01b0388165f9081526001602052604090206002810154611234908a611bb6565b5060028101889055611246888a611b1e565b506003810187905580546001820154600283015460408051918252602082018b90523382820152516001600160a01b03909216917ffc191755351d7e10a8ace8bf64b4b9c3e134034908d92b1627506b93f5cb6e6d9181900360600190a3505050505050505050565b6112c65f805160206129518339815191523361149d565b1580156112e757506112e55f805160206129918339815191523361149d565b155b1561130757604051633733be5960e21b81523360048201526024016105a7565b61131033611671565b61132f573360405163fcbe8fe560e01b81526004016105a79190612711565b6001600160a01b038083165f9081526001602081905260409091200154839116611377576040516353807e1960e11b81526001600160a01b03821660048201526024016105a7565b6001600160a01b0383165f90815260016020526040808220543383529120548491146113c15760405163209b79b360e11b81526001600160a01b03821660048201526024016105a7565b6001600160a01b0384165f9081526001602052604090206002015484905f8051602061297183398151915201611419575f80516020612951833981519152604051635bc4402b60e01b81526004016105a7919061281a565b6001600160a01b038581165f9081526001602081815260409283902060048101805460ff19168a1515908117909155815493820154855160ff9092161515825233938201939093529094929391909216917f0cb70caea8199b061c208eccdda7107018990ae41a11d32cfd88decf94fd3388910160405180910390a3505050505050565b5f918252602082815260408084206001600160a01b0393909316845291905290205460ff1690565b5f6114cf88611671565b6114da57505f61164d565b6114e5600789611e03565b15611559576001600160a01b0388165f908152600b60205260408120905b815481101561154f5781818154811061151e5761151e6128c3565b5f918252602090912001546001600160a01b03908116908a16036115475760019250505061164d565b600101611503565b505f91505061164d565b611564600988611e03565b156115ce576001600160a01b0387165f908152600c60205260408120905b815481101561154f5781818154811061159d5761159d6128c3565b5f918252602090912001546001600160a01b03908116908b16036115c65760019250505061164d565b600101611582565b6001600160a01b0387165f03611649576116087ffc425f2263d0df187444b70e47283d622c70181c5baebb1306a01edba1ce184c8961149d565b8061162557506116255f805160206129918339815191528961149d565b8061164257506116425f805160206129518339815191528961149d565b905061164d565b5060015b979650505050505050565b600b602052815f5260405f20818154811061096e575f80fd5b6001600160a01b0381165f908152600160205260408120600481015460ff16801561172157508054604051630ba7801b60e21b815260048101919091527f00000000000000000000000000000000000000000000000000000000000000006001600160a01b031690632e9e006c90602401602060405180830381865afa1580156116fd573d5f803e3d5ffd5b505050506040513d601f19601f8201168201806040525081019061172191906127ff565b9392505050565b5f838152600460205260409020606090611743908484611e24565b949350505050565b6040516301fd3f7760e71b81523360048201527f00000000000000000000000000000000000000000000000000000000000000006001600160a01b03169063fe9fbb8090602401602060405180830381865afa1580156117ad573d5f803e3d5ffd5b505050506040513d601f19601f820116820180604052508101906117d191906127ff565b6117f057604051633733be5960e21b81523360048201526024016105a7565b836001600160a01b03811661181a57806040516312292b4d60e21b81526004016105a79190612780565b83156118545761182b600986611d50565b506001600160a01b0385165f908152600c6020526040902061184e9084846122c3565b50611880565b61185f600986611d64565b506001600160a01b0385165f908152600c6020526040812061188091612324565b831515856001600160a01b03167f779098cdd2a8d2f6663bd8974205bcadc28042aa34c24c8183d6232f788e5a5a8585336040516118c093929190612863565b60405180910390a35050505050565b5f828152602081905260409020600101546118e981611b11565b6109ad8383611bb6565b60606109be6007611d44565b606061172160028484611e24565b6040805160a0810182525f808252602082018190529181018290526060810182905260808101919091526001600160a01b038083165f908152600160208190526040909120015483911661197f576040516353807e1960e11b81526001600160a01b03821660048201526024016105a7565b50506001600160a01b039081165f90815260016020818152604092839020835160a0810185528154815292810154909416908201526002830154918101919091526003820154606082015260049091015460ff161515608082015290565b6119e78282611d78565b6040805160a0810182528481526001600160a01b038681166020808401828152848601888152606086018881526001608088018181525f968752948190529790942086518155915196820180546001600160a01b031916979095169690961790935593516002808401919091559051600383015592516004909101805460ff191691151591909117905590611a7c9086611d50565b505f848152600460205260409020611a949086611d50565b50611a9f8386611b1e565b50611aaa8484612070565b805f015181602001516001600160a01b03167fac9221d47758dfabe102013bb4d7f5bfac967cfe32746a1504d44f690227703283604001518460600151336040516118c09392919092835260208301919091526001600160a01b0316604082015260600190565b611b1b81336120af565b50565b5f611b29838361149d565b611ba6575f838152602081815260408083206001600160a01b03861684529091529020805460ff19166001179055611b5e3390565b6001600160a01b0316826001600160a01b0316847f2f8788117e7eff1d82e926ec794901d17c78024a50270940304540a733656f0d60405160405180910390a450600161054d565b505f61054d565b5f61054d825490565b5f611bc1838361149d565b15611ba6575f838152602081815260408083206001600160a01b0386168085529252808320805460ff1916905551339286917ff6391f5c32d9c69d2a47ea670b442974b53935d1edc7fd64eb21e047a839171b9190a450600161054d565b6001600160a01b038082165f90815260016020818152604092839020835160a08101855281548152928101549094169082015260028301549181018290526003830154606082015260049092015460ff1615156080830152611c819083611bb6565b506001600160a01b0382165f908152600160208190526040822082815590810180546001600160a01b031916905560028082018390556003820192909255600401805460ff19169055611cd49083611d64565b5080515f908152600460205260409020611cee9083611d64565b50611d00815f015182604001516120e8565b80516040513381526001600160a01b038416907f09fdf28cfa7c345022ba743ebc03269bbc8c078aaed47112e6392a31245676049060200160405180910390a35050565b60605f61172183612116565b5f611721836001600160a01b03841661216f565b5f611721836001600160a01b0384166121b4565b80158015611d9357505f805160206129518339815191528214155b8015611dac57505f805160206129918339815191528214155b15610cf1578060405163dde87c7d60e01b81526004016105a79181526040602082018190526017908201527f4461746120686173682063616e6e6f7420626520307830000000000000000000606082015260800190565b6001600160a01b0381165f9081526001830160205260408120541515611721565b60606001831015611e8457604051631fff1b3b60e21b815260206004820152602360248201527f50616765206d7573742062652067726561746572206f7220657175616c20746f60448201526201018960ed1b60648201526084016105a7565b6001821015611ee757604051631fff1b3b60e21b815260206004820152602860248201527f506167652073697a65206d7573742062652067726561746572206f7220657175604482015267030b6103a379018960c51b60648201526084016105a7565b5f82611ef46001866128eb565b611efe91906128fe565b9050611f0985611bad565b811115611f1c57611f1985611bad565b90505b5f611f278483612915565b9050611f3286611bad565b811115611f4557611f4286611bad565b90505b5f611f5083836128eb565b67ffffffffffffffff811115611f6857611f68612928565b604051908082528060200260200182016040528015611fbf57816020015b6040805160a0810182525f808252602080830182905292820181905260608201819052608082015282525f19909201910181611f865790505b509050825b828110156120655760015f611fd98a84612297565b6001600160a01b03908116825260208083019390935260409182015f20825160a081018452815481526001820154909216938201939093526002830154918101919091526003820154606082015260049091015460ff16151560808201528261204286846128eb565b81518110612052576120526128c3565b6020908102919091010152600101611fc4565b509695505050505050565b5f805160206129518339815191528103610cf1575f8281526005602052604090205461209d906001612915565b5f838152600560205260409020555050565b6120b9828261149d565b610cf15760405163e2517d3f60e01b81526001600160a01b0382166004820152602481018390526044016105a7565b5f805160206129518339815191528103610cf1575f8281526005602052604090205461209d906001906128eb565b6060815f0180548060200260200160405190810160405280929190818152602001828054801561216357602002820191905f5260205f20905b81548152602001906001019080831161214f575b50505050509050919050565b5f818152600183016020526040812054611ba657508154600181810184555f84815260208082209093018490558454848252828601909352604090209190915561054d565b5f818152600183016020526040812054801561228e575f6121d66001836128eb565b85549091505f906121e9906001906128eb565b9050808214612248575f865f018281548110612207576122076128c3565b905f5260205f200154905080875f018481548110612227576122276128c3565b5f918252602080832090910192909255918252600188019052604090208390555b85548690806122595761225961293c565b600190038181905f5260205f20015f90559055856001015f8681526020019081526020015f205f90556001935050505061054d565b5f91505061054d565b5f61172183835f825f0182815481106122b2576122b26128c3565b905f5260205f200154905092915050565b828054828255905f5260205f20908101928215612314579160200282015b828111156123145781546001600160a01b0319166001600160a01b038435161782556020909201916001909101906122e1565b5061232092915061233b565b5090565b5080545f8255905f5260205f2090810190611b1b91905b5b80821115612320575f815560010161233c565b5f6020828403121561235f575f80fd5b81356001600160e01b031981168114611721575f80fd5b80356001600160a01b038116811461238c575f80fd5b919050565b5f805f606084860312156123a3575f80fd5b6123ac84612376565b95602085013595506040909401359392505050565b5f805f80608085870312156123d4575f80fd5b6123dd85612376565b966020860135965060408601359560600135945092505050565b5f60208284031215612407575f80fd5b5035919050565b5f806040838503121561241f575f80fd5b61242883612376565b946020939093013593505050565b5f8060408385031215612447575f80fd5b8235915061245760208401612376565b90509250929050565b5f60208284031215612470575f80fd5b61172182612376565b602080825282518282018190525f918401906040840190835b818110156124b95783516001600160a01b0316835260209384019390920191600101612492565b509095945050505050565b8015158114611b1b575f80fd5b5f805f80606085870312156124e4575f80fd5b6124ed85612376565b935060208501356124fd816124c4565b9250604085013567ffffffffffffffff811115612518575f80fd5b8501601f81018713612528575f80fd5b803567ffffffffffffffff81111561253e575f80fd5b8760208260051b8401011115612552575f80fd5b949793965060200194505050565b5f8060408385031215612571575f80fd5b61257a83612376565b9150602083013561258a816124c4565b809150509250929050565b5f805f805f805f60c0888a0312156125ab575f80fd5b6125b488612376565b96506125c260208901612376565b955060408801359450606088013593506080880135925060a088013567ffffffffffffffff8111156125f2575f80fd5b8801601f81018a13612602575f80fd5b803567ffffffffffffffff811115612618575f80fd5b8a6020828401011115612629575f80fd5b602082019350809250505092959891949750929550565b5f805f60608486031215612652575f80fd5b505081359360208301359350604090920135919050565b805182526020808201516001600160a01b03169083015260408082015190830152606080820151908301526080908101511515910152565b602080825282518282018190525f918401906040840190835b818110156124b9576126cd838551612669565b6020939093019260a092909201916001016126ba565b5f80604083850312156126f4575f80fd5b50508035926020909101359150565b60a0810161054d8284612669565b6001600160a01b039190911681526040602082018190526038908201527f546865206163636f756e74206f72207468652072657370656374697665206f7260608201527f67616e697a6174696f6e206973206e6f74206163746976650000000000000000608082015260a00190565b6001600160a01b03919091168152604060208201819052601590820152740416464726573732063616e6e6f742062652030783605c1b606082015260800190565b908152604060208201819052601c908201527f54686520696e666f726d656420726f6c6520697320756e6b6e6f776e00000000606082015260800190565b5f6020828403121561280f575f80fd5b8151611721816124c4565b9081526040602082018190526022908201527f546865206163636f756e742063616e6e6f7420626520676c6f62616c2061646d60608201526134b760f11b608082015260a00190565b604080825281018390525f8460608301825b868110156128a3576001600160a01b0361288e84612376565b16825260209283019290910190600101612875565b506001600160a01b03949094166020939093019290925250909392505050565b634e487b7160e01b5f52603260045260245ffd5b634e487b7160e01b5f52601160045260245ffd5b8181038181111561054d5761054d6128d7565b808202811582820484141761054d5761054d6128d7565b8082018082111561054d5761054d6128d7565b634e487b7160e01b5f52604160045260245ffd5b634e487b7160e01b5f52603160045260245ffdfed6e7d8560c69c7c18c2b8f3b45430215d788f128f0c04bc4a3607fe05eb5399f291827a9f396383e73d470c4babcfdea28770ed70f3fb43b5c9f801fa14ac661b7f8beecafe1ad662cec1153812612581a86b9460f21b876f3ee163141203dcba26469706673582212207e9dd1d755bb9ebe5e508b14cfd98d03851ce5f2caca51f20898a8e09ebb657364736f6c634300081a0033d6e7d8560c69c7c18c2b8f3b45430215d788f128f0c04bc4a3607fe05eb5399f","linkReferences":{}},"methodIdentifiers":{"DEFAULT_ADMIN_ROLE()":"a217fddf","accounts(address)":"5e5c06e2","addAccount(address,uint256,bytes32,bytes32)":"18aa3810","addLocalAccount(address,bytes32,bytes32)":"05fa2754","admins()":"a5de3619","deleteAccount(address)":"4c1b64cb","deleteLocalAccount(address)":"377a5a2d","getAccount(address)":"fbcbc0f1","getAccounts(uint256,uint256)":"e68a7c3b","getAccountsByOrg(uint256,uint256,uint256)":"c9174424","getNumberOfAccounts()":"309e36ef","getNumberOfAccountsByOrg(uint256)":"5eba77cf","getRoleAdmin(bytes32)":"248a9ca3","globalAdminsCount(uint256)":"44d28525","grantRole(bytes32,address)":"2f2ff15d","hasRole(bytes32,address)":"91d14854","isAccountActive(address)":"ab9d0cdd","organizations()":"234db1de","renounceRole(bytes32,address)":"36568abe","restrictedAccounts()":"dfc2d5aa","restrictedAccountsAllowedTargets(address,uint256)":"945d961d","restrictedSmartContracts()":"4fda87f8","restrictedSmartContractsAllowedSenders(address,uint256)":"24efe741","revokeRole(bytes32,address)":"d547741f","setAccountTargetAccess(address,bool,address[])":"6d3ed5b3","setSmartContractSenderAccess(address,bool,address[])":"d0420a14","supportsInterface(bytes4)":"01ffc9a7","transactionAllowed(address,address,uint256,uint256,uint256,bytes)":"936421d5","updateLocalAccount(address,bytes32,bytes32)":"6d8498c6","updateLocalAccountStatus(address,bool)":"7003396a","validRoles(bytes32)":"fb0f857e"},"id":28}