{"abi":[{"type":"constructor","inputs":[{"name":"orgs","type":"address","internalType":"contract Organization"},{"name":"accs","type":"address[]","internalType":"address[]"},{"name":"adminsProxy","type":"address","internalType":"contract AdminProxy"}],"stateMutability":"nonpayable"},{"type":"function","name":"DEFAULT_ADMIN_ROLE","inputs":[],"outputs":[{"name":"","type":"bytes32","internalType":"bytes32"}],"stateMutability":"view"},{"type":"function","name":"accounts","inputs":[{"name":"","type":"address","internalType":"address"}],"outputs":[{"name":"orgId","type":"uint256","internalType":"uint256"},{"name":"account","type":"address","internalType":"address"},{"name":"roleId","type":"bytes32","internalType":"bytes32"},{"name":"dataHash","type":"bytes32","internalType":"bytes32"},{"name":"active","type":"bool","internalType":"bool"}],"stateMutability":"view"},{"type":"function","name":"addAccount","inputs":[{"name":"account","type":"address","internalType":"address"},{"name":"orgId","type":"uint256","internalType":"uint256"},{"name":"roleId","type":"bytes32","internalType":"bytes32"},{"name":"dataHash","type":"bytes32","internalType":"bytes32"}],"outputs":[],"stateMutability":"nonpayable"},{"type":"function","name":"addLocalAccount","inputs":[{"name":"account","type":"address","internalType":"address"},{"name":"roleId","type":"bytes32","internalType":"bytes32"},{"name":"dataHash","type":"bytes32","internalType":"bytes32"}],"outputs":[],"stateMutability":"nonpayable"},{"type":"function","name":"admins","inputs":[],"outputs":[{"name":"","type":"address","internalType":"contract AdminProxy"}],"stateMutability":"view"},{"type":"function","name":"deleteAccount","inputs":[{"name":"account","type":"address","internalType":"address"}],"outputs":[],"stateMutability":"nonpayable"},{"type":"function","name":"deleteLocalAccount","inputs":[{"name":"account","type":"address","internalType":"address"}],"outputs":[],"stateMutability":"nonpayable"},{"type":"function","name":"getAccount","inputs":[{"name":"account","type":"address","internalType":"address"}],"outputs":[{"name":"","type":"tuple","internalType":"struct AccountRulesV2.AccountData","components":[{"name":"orgId","type":"uint256","internalType":"uint256"},{"name":"account","type":"address","internalType":"address"},{"name":"roleId","type":"bytes32","internalType":"bytes32"},{"name":"dataHash","type":"bytes32","internalType":"bytes32"},{"name":"active","type":"bool","internalType":"bool"}]}],"stateMutability":"view"},{"type":"function","name":"getAccounts","inputs":[{"name":"page","type":"uint256","internalType":"uint256"},{"name":"pageSize","type":"uint256","internalType":"uint256"}],"outputs":[{"name":"","type":"tuple[]","internalType":"struct AccountRulesV2.AccountData[]","components":[{"name":"orgId","type":"uint256","internalType":"uint256"},{"name":"account","type":"address","internalType":"address"},{"name":"roleId","type":"bytes32","internalType":"bytes32"},{"name":"dataHash","type":"bytes32","internalType":"bytes32"},{"name":"active","type":"bool","internalType":"bool"}]}],"stateMutability":"view"},{"type":"function","name":"getAccountsByOrg","inputs":[{"name":"orgId","type":"uint256","internalType":"uint256"},{"name":"page","type":"uint256","internalType":"uint256"},{"name":"pageSize","type":"uint256","internalType":"uint256"}],"outputs":[{"name":"","type":"tuple[]","internalType":"struct AccountRulesV2.AccountData[]","components":[{"name":"orgId","type":"uint256","internalType":"uint256"},{"name":"account","type":"address","internalType":"address"},{"name":"roleId","type":"bytes32","internalType":"bytes32"},{"name":"dataHash","type":"bytes32","internalType":"bytes32"},{"name":"active","type":"bool","internalType":"bool"}]}],"stateMutability":"view"},{"type":"function","name":"getNumberOfAccounts","inputs":[],"outputs":[{"name":"","type":"uint256","internalType":"uint256"}],"stateMutability":"view"},{"type":"function","name":"getNumberOfAccountsByOrg","inputs":[{"name":"orgId","type":"uint256","internalType":"uint256"}],"outputs":[{"name":"","type":"uint256","internalType":"uint256"}],"stateMutability":"view"},{"type":"function","name":"getRoleAdmin","inputs":[{"name":"role","type":"bytes32","internalType":"bytes32"}],"outputs":[{"name":"","type":"bytes32","internalType":"bytes32"}],"stateMutability":"view"},{"type":"function","name":"globalAdminsCount","inputs":[{"name":"","type":"uint256","internalType":"uint256"}],"outputs":[{"name":"","type":"uint256","internalType":"uint256"}],"stateMutability":"view"},{"type":"function","name":"grantRole","inputs":[{"name":"role","type":"bytes32","internalType":"bytes32"},{"name":"account","type":"address","internalType":"address"}],"outputs":[],"stateMutability":"nonpayable"},{"type":"function","name":"hasRole","inputs":[{"name":"role","type":"bytes32","internalType":"bytes32"},{"name":"account","type":"address","internalType":"address"}],"outputs":[{"name":"","type":"bool","internalType":"bool"}],"stateMutability":"view"},{"type":"function","name":"isAccountActive","inputs":[{"name":"account","type":"address","internalType":"address"}],"outputs":[{"name":"","type":"bool","internalType":"bool"}],"stateMutability":"view"},{"type":"function","name":"organizations","inputs":[],"outputs":[{"name":"","type":"address","internalType":"contract Organization"}],"stateMutability":"view"},{"type":"function","name":"renounceRole","inputs":[{"name":"role","type":"bytes32","internalType":"bytes32"},{"name":"callerConfirmation","type":"address","internalType":"address"}],"outputs":[],"stateMutability":"nonpayable"},{"type":"function","name":"restrictedAccounts","inputs":[],"outputs":[{"name":"","type":"address[]","internalType":"address[]"}],"stateMutability":"view"},{"type":"function","name":"restrictedAccountsAllowedTargets","inputs":[{"name":"","type":"address","internalType":"address"},{"name":"","type":"uint256","internalType":"uint256"}],"outputs":[{"name":"","type":"address","internalType":"address"}],"stateMutability":"view"},{"type":"function","name":"restrictedAccountsContains","inputs":[{"name":"account","type":"address","internalType":"address"}],"outputs":[{"name":"","type":"bool","internalType":"bool"}],"stateMutability":"view"},{"type":"function","name":"restrictedSmartContracts","inputs":[],"outputs":[{"name":"","type":"address[]","internalType":"address[]"}],"stateMutability":"view"},{"type":"function","name":"restrictedSmartContractsAllowedSenders","inputs":[{"name":"","type":"address","internalType":"address"},{"name":"","type":"uint256","internalType":"uint256"}],"outputs":[{"name":"","type":"address","internalType":"address"}],"stateMutability":"view"},{"type":"function","name":"revokeRole","inputs":[{"name":"role","type":"bytes32","internalType":"bytes32"},{"name":"account","type":"address","internalType":"address"}],"outputs":[],"stateMutability":"nonpayable"},{"type":"function","name":"setAccountTargetAccess","inputs":[{"name":"account","type":"address","internalType":"address"},{"name":"restricted","type":"bool","internalType":"bool"},{"name":"allowedTargets","type":"address[]","internalType":"address[]"}],"outputs":[],"stateMutability":"nonpayable"},{"type":"function","name":"setSmartContractSenderAccess","inputs":[{"name":"smartContract","type":"address","internalType":"address"},{"name":"restricted","type":"bool","internalType":"bool"},{"name":"allowedSenders","type":"address[]","internalType":"address[]"}],"outputs":[],"stateMutability":"nonpayable"},{"type":"function","name":"supportsInterface","inputs":[{"name":"interfaceId","type":"bytes4","internalType":"bytes4"}],"outputs":[{"name":"","type":"bool","internalType":"bool"}],"stateMutability":"view"},{"type":"function","name":"transactionAllowed","inputs":[{"name":"sender","type":"address","internalType":"address"},{"name":"target","type":"address","internalType":"address"},{"name":"","type":"uint256","internalType":"uint256"},{"name":"","type":"uint256","internalType":"uint256"},{"name":"","type":"uint256","internalType":"uint256"},{"name":"","type":"bytes","internalType":"bytes"}],"outputs":[{"name":"","type":"bool","internalType":"bool"}],"stateMutability":"view"},{"type":"function","name":"updateLocalAccount","inputs":[{"name":"account","type":"address","internalType":"address"},{"name":"roleId","type":"bytes32","internalType":"bytes32"},{"name":"dataHash","type":"bytes32","internalType":"bytes32"}],"outputs":[],"stateMutability":"nonpayable"},{"type":"function","name":"updateLocalAccountStatus","inputs":[{"name":"account","type":"address","internalType":"address"},{"name":"active","type":"bool","internalType":"bool"}],"outputs":[],"stateMutability":"nonpayable"},{"type":"function","name":"validRoles","inputs":[{"name":"","type":"bytes32","internalType":"bytes32"}],"outputs":[{"name":"","type":"bool","internalType":"bool"}],"stateMutability":"view"},{"type":"event","name":"AccountAdded","inputs":[{"name":"account","type":"address","indexed":true,"internalType":"address"},{"name":"orgId","type":"uint256","indexed":true,"internalType":"uint256"},{"name":"roleId","type":"bytes32","indexed":false,"internalType":"bytes32"},{"name":"dataHash","type":"bytes32","indexed":false,"internalType":"bytes32"},{"name":"admin","type":"address","indexed":false,"internalType":"address"}],"anonymous":false},{"type":"event","name":"AccountDeleted","inputs":[{"name":"account","type":"address","indexed":true,"internalType":"address"},{"name":"orgId","type":"uint256","indexed":true,"internalType":"uint256"},{"name":"admin","type":"address","indexed":false,"internalType":"address"}],"anonymous":false},{"type":"event","name":"AccountStatusUpdated","inputs":[{"name":"account","type":"address","indexed":true,"internalType":"address"},{"name":"orgId","type":"uint256","indexed":true,"internalType":"uint256"},{"name":"active","type":"bool","indexed":false,"internalType":"bool"},{"name":"admin","type":"address","indexed":false,"internalType":"address"}],"anonymous":false},{"type":"event","name":"AccountTargetAccessUpdated","inputs":[{"name":"account","type":"address","indexed":true,"internalType":"address"},{"name":"restricted","type":"bool","indexed":true,"internalType":"bool"},{"name":"allowedTargets","type":"address[]","indexed":false,"internalType":"address[]"},{"name":"admin","type":"address","indexed":false,"internalType":"address"}],"anonymous":false},{"type":"event","name":"AccountUpdated","inputs":[{"name":"account","type":"address","indexed":true,"internalType":"address"},{"name":"orgId","type":"uint256","indexed":true,"internalType":"uint256"},{"name":"roleId","type":"bytes32","indexed":false,"internalType":"bytes32"},{"name":"dataHash","type":"bytes32","indexed":false,"internalType":"bytes32"},{"name":"admin","type":"address","indexed":false,"internalType":"address"}],"anonymous":false},{"type":"event","name":"RoleAdminChanged","inputs":[{"name":"role","type":"bytes32","indexed":true,"internalType":"bytes32"},{"name":"previousAdminRole","type":"bytes32","indexed":true,"internalType":"bytes32"},{"name":"newAdminRole","type":"bytes32","indexed":true,"internalType":"bytes32"}],"anonymous":false},{"type":"event","name":"RoleGranted","inputs":[{"name":"role","type":"bytes32","indexed":true,"internalType":"bytes32"},{"name":"account","type":"address","indexed":true,"internalType":"address"},{"name":"sender","type":"address","indexed":true,"internalType":"address"}],"anonymous":false},{"type":"event","name":"RoleRevoked","inputs":[{"name":"role","type":"bytes32","indexed":true,"internalType":"bytes32"},{"name":"account","type":"address","indexed":true,"internalType":"address"},{"name":"sender","type":"address","indexed":true,"internalType":"address"}],"anonymous":false},{"type":"event","name":"SmartContractSenderAccessUpdated","inputs":[{"name":"smartContract","type":"address","indexed":true,"internalType":"address"},{"name":"restricted","type":"bool","indexed":true,"internalType":"bool"},{"name":"allowedSenders","type":"address[]","indexed":false,"internalType":"address[]"},{"name":"admin","type":"address","indexed":false,"internalType":"address"}],"anonymous":false},{"type":"error","name":"AccessControlBadConfirmation","inputs":[]},{"type":"error","name":"AccessControlUnauthorizedAccount","inputs":[{"name":"account","type":"address","internalType":"address"},{"name":"neededRole","type":"bytes32","internalType":"bytes32"}]},{"type":"error","name":"AccountNotFound","inputs":[{"name":"account","type":"address","internalType":"address"}]},{"type":"error","name":"DuplicateAccount","inputs":[{"name":"account","type":"address","internalType":"address"}]},{"type":"error","name":"IllegalState","inputs":[{"name":"message","type":"string","internalType":"string"}]},{"type":"error","name":"InactiveAccount","inputs":[{"name":"account","type":"address","internalType":"address"},{"name":"message","type":"string","internalType":"string"}]},{"type":"error","name":"InvalidAccount","inputs":[{"name":"account","type":"address","internalType":"address"},{"name":"message","type":"string","internalType":"string"}]},{"type":"error","name":"InvalidArgument","inputs":[{"name":"message","type":"string","internalType":"string"}]},{"type":"error","name":"InvalidHash","inputs":[{"name":"hash","type":"bytes32","internalType":"bytes32"},{"name":"message","type":"string","internalType":"string"}]},{"type":"error","name":"InvalidOrganization","inputs":[{"name":"orgId","type":"uint256","internalType":"uint256"},{"name":"message","type":"string","internalType":"string"}]},{"type":"error","name":"InvalidRole","inputs":[{"name":"roleId","type":"bytes32","internalType":"bytes32"},{"name":"message","type":"string","internalType":"string"}]},{"type":"error","name":"InvalidSenderAddress","inputs":[{"name":"sender","type":"address","internalType":"address"}]},{"type":"error","name":"InvalidTargetAddress","inputs":[{"name":"target","type":"address","internalType":"address"}]},{"type":"error","name":"NotLocalAccount","inputs":[{"name":"account","type":"address","internalType":"address"}]},{"type":"error","name":"UnauthorizedAccess","inputs":[{"name":"account","type":"address","internalType":"address"}]}],"bytecode":{"object":"0x60c060405234801561000f575f80fd5b506040516131cd3803806131cd83398101604081905261002e91610634565b806001600160a01b0381166100b05760405162461bcd60e51b815260206004820152603360248201527f496e76616c6964206164647265737320666f722041646d696e206d616e61676560448201527f6d656e7420736d61727420636f6e74726163740000000000000000000000000060648201526084015b60405180910390fd5b6001600160a01b03908116608052831661013357604051631fff1b3b60e21b815260206004820152603a60248201527f496e76616c6964206164647265737320666f72204f7267616e697a6174696f6e60448201527f206d616e6167656d656e7420736d61727420636f6e747261637400000000000060648201526084016100a7565b60028251101561018657604051631fff1b3b60e21b815260206004820152601e60248201527f4174206c656173742032206163636f756e7473206d757374206578697374000060448201526064016100a7565b6001600160a01b03831660a0525f5b82518110156101ee575f8382815181106101b1576101b1610722565b602002602001015190505f8260016101c99190610736565b90506101e482825f805160206131ad8339815191525f6102cc565b5050600101610195565b5050600660205250507f3bfd5d6811cd880ec2847c0954b2e15b620a5671be2041183323cb226fe4927e8054600160ff1991821681179092557f816c64b50533cdc4ff23f164b44cfdac36361ac500fb25ae7f5dedba60178a4880548216831790557f63c5f4c78d8273c29df67c6b0912e7d17e13bb6ee538ba4f5dfe200b290617ba80548216831790557f14823911f2da1b49f045a0929a60b8c1f2a7fc8c06c7284ca3e8ab4e193a08c85f527f7f6f04f9553907862f17ddfbae42960d339ee65c0885968ed7b983cb8114384780549091169091179055610755565b6102d6828261040f565b6040805160a0810182528481526001600160a01b038681166020808401828152848601888152606086018881526001608088018181525f968752948190529790942086518155915196820180546001600160a01b031916979095169690961790935593516002808401919091559051600383015592516004909101805460ff19169115159190911790559061036b90866104b1565b505f84815260046020526040902061038390866104b1565b5061038e83866104ce565b506103998484610575565b805f015181602001516001600160a01b03167fac9221d47758dfabe102013bb4d7f5bfac967cfe32746a1504d44f690227703283604001518460600151336040516104009392919092835260208301919091526001600160a01b0316604082015260600190565b60405180910390a35050505050565b8015801561042a57505f805160206131ad8339815191528214155b801561045657507fb7f8beecafe1ad662cec1153812612581a86b9460f21b876f3ee163141203dcb8214155b156104ad578060405163dde87c7d60e01b81526004016100a79181526040602082018190526017908201527f4461746120686173682063616e6e6f7420626520307830000000000000000000606082015260800190565b5050565b5f6104c5836001600160a01b0384166105b4565b90505b92915050565b5f828152602081815260408083206001600160a01b038516845290915281205460ff1661056e575f838152602081815260408083206001600160a01b03861684529091529020805460ff191660011790556105263390565b6001600160a01b0316826001600160a01b0316847f2f8788117e7eff1d82e926ec794901d17c78024a50270940304540a733656f0d60405160405180910390a45060016104c8565b505f6104c8565b5f805160206131ad83398151915281036104ad575f828152600560205260409020546105a2906001610736565b5f838152600560205260409020555050565b5f81815260018301602052604081205461056e57508154600181810184555f8481526020808220909301849055845484825282860190935260409020919091556104c8565b6001600160a01b038116811461060d575f80fd5b50565b634e487b7160e01b5f52604160045260245ffd5b805161062f816105f9565b919050565b5f805f60608486031215610646575f80fd5b8351610651816105f9565b60208501519093506001600160401b0381111561066c575f80fd5b8401601f8101861361067c575f80fd5b80516001600160401b0381111561069557610695610610565b604051600582901b90603f8201601f191681016001600160401b03811182821017156106c3576106c3610610565b6040529182526020818401810192908101898411156106e0575f80fd5b6020850194505b83851015610706576106f885610624565b8152602094850194016106e7565b5094506107199250505060408501610624565b90509250925092565b634e487b7160e01b5f52603260045260245ffd5b808201808211156104c857634e487b7160e01b5f52601160045260245ffd5b60805160a051612a146107995f395f81816102400152818161085b01526116d201525f81816104500152818161074001528181610ba501526117820152612a145ff3fe608060405234801561000f575f80fd5b50600436106101e7575f3560e01c80636d8498c611610109578063c91744241161009e578063e68a7c3b1161006e578063e68a7c3b146104d3578063e76da04b146104e6578063fb0f857e146104f9578063fbcbc0f11461051b575f80fd5b8063c917442414610485578063d0420a14146104a5578063d547741f146104b8578063dfc2d5aa146104cb575f80fd5b8063945d961d116100d9578063945d961d14610431578063a217fddf14610444578063a5de36191461044b578063ab9d0cdd14610472575f80fd5b80636d8498c6146103e55780637003396a146103f857806391d148541461040b578063936421d51461041e575f80fd5b806336568abe1161017f5780634fda87f81161014f5780634fda87f8146103305780635e5c06e2146103455780635eba77cf146103bf5780636d3ed5b3146103d2575f80fd5b806336568abe146102d8578063377a5a2d146102eb57806344d28525146102fe5780634c1b64cb1461031d575f80fd5b8063248a9ca3116101ba578063248a9ca31461027a57806324efe741146102aa5780632f2ff15d146102bd578063309e36ef146102d0575f80fd5b806301ffc9a7146101eb57806305fa27541461021357806318aa381014610228578063234db1de1461023b575b5f80fd5b6101fe6101f936600461237d565b61053b565b60405190151581526020015b60405180910390f35b6102266102213660046123bf565b610571565b005b6102266102363660046123ef565b61072b565b6102627f000000000000000000000000000000000000000000000000000000000000000081565b6040516001600160a01b03909116815260200161020a565b61029c610288366004612425565b5f9081526020819052604090206001015490565b60405190815260200161020a565b6102626102b836600461243c565b610977565b6102266102cb366004612464565b6109ab565b61029c6109d5565b6102266102e6366004612464565b6109e5565b6102266102f936600461248e565b610a1d565b61029c61030c366004612425565b60056020525f908152604090205481565b61022661032b36600461248e565b610b90565b610338610d17565b60405161020a91906124a7565b61038d61035336600461248e565b600160208190525f9182526040909120805491810154600282015460038301546004909301546001600160a01b0390921692909160ff1685565b604080519586526001600160a01b0390941660208601529284019190915260608301521515608082015260a00161020a565b61029c6103cd366004612425565b610d23565b6102266103e03660046124ff565b610d39565b6102266103f33660046123bf565b611023565b61022661040636600461258e565b6112d1565b6101fe610419366004612464565b6114bf565b6101fe61042c3660046125c3565b6114e7565b61026261043f36600461243c565b61167a565b61029c5f81565b6102627f000000000000000000000000000000000000000000000000000000000000000081565b6101fe61048036600461248e565b611693565b61049861049336600461266e565b61174a565b60405161020a91906126cf565b6102266104b33660046124ff565b61176d565b6102266104c6366004612464565b6118f1565b610338611915565b6104986104e1366004612711565b611921565b6101fe6104f436600461248e565b61192f565b6101fe610507366004612425565b60066020525f908152604090205460ff1681565b61052e61052936600461248e565b61193b565b60405161020a9190612731565b5f6001600160e01b03198216637965db0b60e01b148061056b57506301ffc9a760e01b6001600160e01b03198316145b92915050565b826001600160a01b0381166105a457806040516312292b4d60e21b815260040161059b919061273f565b60405180910390fd5b825f8051602061297f833981519152810361060b5780604051635bc4402b60e01b815260040161059b918152604060208201819052601f908201527f54686520726f6c652063616e6e6f7420626520676c6f62616c2061646d696e00606082015260800190565b6001600160a01b038086165f9081526001602081905260409091200154869116156106545760405163ebad245d60e01b81526001600160a01b038216600482015260240161059b565b5f85815260066020526040902054859060ff166106865780604051635bc4402b60e01b815260040161059b9190612780565b61069d5f8051602061297f833981519152336114bf565b1580156106be57506106bc5f805160206129bf833981519152336114bf565b155b156106de57604051633733be5960e21b815233600482015260240161059b565b6106e733611693565b610706573360405163fcbe8fe560e01b815260040161059b91906127be565b335f908152600160205260409020546107229088908888611a0b565b50505050505050565b6040516301fd3f7760e71b81523360048201527f00000000000000000000000000000000000000000000000000000000000000006001600160a01b03169063fe9fbb8090602401602060405180830381865afa15801561078d573d5f803e3d5ffd5b505050506040513d601f19601f820116820180604052508101906107b1919061282d565b6107d057604051633733be5960e21b815233600482015260240161059b565b836001600160a01b0381166107fa57806040516312292b4d60e21b815260040161059b919061273f565b6001600160a01b038086165f9081526001602081905260409091200154869116156108435760405163ebad245d60e01b81526001600160a01b038216600482015260240161059b565b604051630ba7801b60e21b81526004810186905285907f00000000000000000000000000000000000000000000000000000000000000006001600160a01b031690632e9e006c90602401602060405180830381865afa1580156108a8573d5f803e3d5ffd5b505050506040513d601f19601f820116820180604052508101906108cc919061282d565b61092f578060405163515f8b8160e01b815260040161059b9181526040602082018190526024908201527f54686520696e666f726d6564206f7267616e697a6174696f6e20697320756e6b6060820152633737bbb760e11b608082015260a00190565b5f85815260066020526040902054859060ff166109615780604051635bc4402b60e01b815260040161059b9190612780565b61096d88888888611a0b565b5050505050505050565b600c602052815f5260405f208181548110610990575f80fd5b5f918252602090912001546001600160a01b03169150829050565b5f828152602081905260409020600101546109c581611b3f565b6109cf8383611b4c565b50505050565b5f6109e06002611bdb565b905090565b6001600160a01b0381163314610a0e5760405163334bd91960e11b815260040160405180910390fd5b610a188282611be4565b505050565b610a345f8051602061297f833981519152336114bf565b158015610a555750610a535f805160206129bf833981519152336114bf565b155b15610a7557604051633733be5960e21b815233600482015260240161059b565b610a7e33611693565b610a9d573360405163fcbe8fe560e01b815260040161059b91906127be565b6001600160a01b038082165f9081526001602081905260409091200154829116610ae5576040516353807e1960e11b81526001600160a01b038216600482015260240161059b565b6001600160a01b0382165f9081526001602052604080822054338352912054839114610b2f5760405163209b79b360e11b81526001600160a01b038216600482015260240161059b565b6001600160a01b0383165f9081526001602052604090206002015483905f8051602061299f83398151915201610b87575f8051602061297f833981519152604051635bc4402b60e01b815260040161059b9190612848565b6109cf84611c4d565b6040516301fd3f7760e71b81523360048201527f00000000000000000000000000000000000000000000000000000000000000006001600160a01b03169063fe9fbb8090602401602060405180830381865afa158015610bf2573d5f803e3d5ffd5b505050506040513d601f19601f82011682018060405250810190610c16919061282d565b610c3557604051633733be5960e21b815233600482015260240161059b565b6001600160a01b038082165f9081526001602081905260409091200154829116610c7d576040516353807e1960e11b81526001600160a01b038216600482015260240161059b565b6001600160a01b0382165f908152600160209081526040808320548352600590915290205460021115610d0a5760405163c50656df60e01b815260206004820152602e60248201527f4174206c65617374203120676c6f62616c2061646d696e6973747261746f722060448201526d6d7573742062652061637469766560901b606482015260840161059b565b610d1382611c4d565b5050565b60606109e06009611d72565b5f81815260046020526040812061056b90611bdb565b610d505f8051602061297f833981519152336114bf565b158015610d715750610d6f5f805160206129bf833981519152336114bf565b155b15610d9157604051633733be5960e21b815233600482015260240161059b565b610d9a33611693565b610db9573360405163fcbe8fe560e01b815260040161059b91906127be565b6001600160a01b038085165f9081526001602081905260409091200154859116610e01576040516353807e1960e11b81526001600160a01b038216600482015260240161059b565b6001600160a01b0385165f9081526001602052604080822054338352912054869114610e4b5760405163209b79b360e11b81526001600160a01b038216600482015260240161059b565b6001600160a01b0386165f9081526001602052604090206002015486905f8051602061299f83398151915201610ea3575f8051602061297f833981519152604051635bc4402b60e01b815260040161059b9190612848565b8515610f43575f849003610f0f57604051631fff1b3b60e21b815260206004820152602c60248201527f4174206c65617374206f6e6520616c6c6f77656420746172676574206d75737460448201526b081899481a5b999bdc9b595960a21b606482015260840161059b565b610f1a600788611d7e565b506001600160a01b0387165f908152600b60205260409020610f3d9086866122f1565b50610fd2565b8315610fa657604051631fff1b3b60e21b815260206004820152602b60248201527f4e6f20616c6c6f776564207461726765742073686f756c64206861766520626560448201526a195b881a5b999bdc9b595960aa1b606482015260840161059b565b610fb1600788611d92565b506001600160a01b0387165f908152600b60205260408120610fd291612352565b851515876001600160a01b03167fad2e1dd15a9a7b46d899f89fb0bd8ace6cf18d382894f4d972105d0ee7202bc587873360405161101293929190612891565b60405180910390a350505050505050565b61103a5f8051602061297f833981519152336114bf565b15801561105b57506110595f805160206129bf833981519152336114bf565b155b1561107b57604051633733be5960e21b815233600482015260240161059b565b61108433611693565b6110a3573360405163fcbe8fe560e01b815260040161059b91906127be565b6001600160a01b038084165f90815260016020819052604090912001548491166110eb576040516353807e1960e11b81526001600160a01b038216600482015260240161059b565b6001600160a01b0384165f90815260016020526040808220543383529120548591146111355760405163209b79b360e11b81526001600160a01b038216600482015260240161059b565b6001600160a01b0385165f9081526001602052604090206002015485905f8051602061299f8339815191520161118d575f8051602061297f833981519152604051635bc4402b60e01b815260040161059b9190612848565b5f85815260066020526040902054859060ff166111bf5780604051635bc4402b60e01b815260040161059b9190612780565b855f8051602061297f83398151915281036112265780604051635bc4402b60e01b815260040161059b918152604060208201819052601f908201527f54686520726f6c652063616e6e6f7420626520676c6f62616c2061646d696e00606082015260800190565b6112308787611da6565b6001600160a01b0388165f9081526001602052604090206002810154611256908a611be4565b5060028101889055611268888a611b4c565b506003810187905580546001820154600283015460408051918252602082018b90523382820152516001600160a01b03909216917ffc191755351d7e10a8ace8bf64b4b9c3e134034908d92b1627506b93f5cb6e6d9181900360600190a3505050505050505050565b6112e85f8051602061297f833981519152336114bf565b15801561130957506113075f805160206129bf833981519152336114bf565b155b1561132957604051633733be5960e21b815233600482015260240161059b565b61133233611693565b611351573360405163fcbe8fe560e01b815260040161059b91906127be565b6001600160a01b038083165f9081526001602081905260409091200154839116611399576040516353807e1960e11b81526001600160a01b038216600482015260240161059b565b6001600160a01b0383165f90815260016020526040808220543383529120548491146113e35760405163209b79b360e11b81526001600160a01b038216600482015260240161059b565b6001600160a01b0384165f9081526001602052604090206002015484905f8051602061299f8339815191520161143b575f8051602061297f833981519152604051635bc4402b60e01b815260040161059b9190612848565b6001600160a01b038581165f9081526001602081815260409283902060048101805460ff19168a1515908117909155815493820154855160ff9092161515825233938201939093529094929391909216917f0cb70caea8199b061c208eccdda7107018990ae41a11d32cfd88decf94fd3388910160405180910390a3505050505050565b5f918252602082815260408084206001600160a01b0393909316845291905290205460ff1690565b5f6114f188611693565b6114fc57505f61166f565b611507600789611e31565b1561157b576001600160a01b0388165f908152600b60205260408120905b815481101561157157818181548110611540576115406128f1565b5f918252602090912001546001600160a01b03908116908a16036115695760019250505061166f565b600101611525565b505f91505061166f565b611586600988611e31565b156115f0576001600160a01b0387165f908152600c60205260408120905b8154811015611571578181815481106115bf576115bf6128f1565b5f918252602090912001546001600160a01b03908116908b16036115e85760019250505061166f565b6001016115a4565b6001600160a01b0387165f0361166b5761162a7ffc425f2263d0df187444b70e47283d622c70181c5baebb1306a01edba1ce184c896114bf565b8061164757506116475f805160206129bf833981519152896114bf565b8061166457506116645f8051602061297f833981519152896114bf565b905061166f565b5060015b979650505050505050565b600b602052815f5260405f208181548110610990575f80fd5b6001600160a01b0381165f908152600160205260408120600481015460ff16801561174357508054604051630ba7801b60e21b815260048101919091527f00000000000000000000000000000000000000000000000000000000000000006001600160a01b031690632e9e006c90602401602060405180830381865afa15801561171f573d5f803e3d5ffd5b505050506040513d601f19601f82011682018060405250810190611743919061282d565b9392505050565b5f838152600460205260409020606090611765908484611e52565b949350505050565b6040516301fd3f7760e71b81523360048201527f00000000000000000000000000000000000000000000000000000000000000006001600160a01b03169063fe9fbb8090602401602060405180830381865afa1580156117cf573d5f803e3d5ffd5b505050506040513d601f19601f820116820180604052508101906117f3919061282d565b61181257604051633733be5960e21b815233600482015260240161059b565b836001600160a01b03811661183c57806040516312292b4d60e21b815260040161059b919061273f565b83156118765761184d600986611d7e565b506001600160a01b0385165f908152600c602052604090206118709084846122f1565b506118a2565b611881600986611d92565b506001600160a01b0385165f908152600c602052604081206118a291612352565b831515856001600160a01b03167f779098cdd2a8d2f6663bd8974205bcadc28042aa34c24c8183d6232f788e5a5a8585336040516118e293929190612891565b60405180910390a35050505050565b5f8281526020819052604090206001015461190b81611b3f565b6109cf8383611be4565b60606109e06007611d72565b606061174360028484611e52565b5f61056b600783611e31565b6040805160a0810182525f808252602082018190529181018290526060810182905260808101919091526001600160a01b038083165f90815260016020819052604090912001548391166119ad576040516353807e1960e11b81526001600160a01b038216600482015260240161059b565b50506001600160a01b039081165f90815260016020818152604092839020835160a0810185528154815292810154909416908201526002830154918101919091526003820154606082015260049091015460ff161515608082015290565b611a158282611da6565b6040805160a0810182528481526001600160a01b038681166020808401828152848601888152606086018881526001608088018181525f968752948190529790942086518155915196820180546001600160a01b031916979095169690961790935593516002808401919091559051600383015592516004909101805460ff191691151591909117905590611aaa9086611d7e565b505f848152600460205260409020611ac29086611d7e565b50611acd8386611b4c565b50611ad8848461209e565b805f015181602001516001600160a01b03167fac9221d47758dfabe102013bb4d7f5bfac967cfe32746a1504d44f690227703283604001518460600151336040516118e29392919092835260208301919091526001600160a01b0316604082015260600190565b611b4981336120dd565b50565b5f611b5783836114bf565b611bd4575f838152602081815260408083206001600160a01b03861684529091529020805460ff19166001179055611b8c3390565b6001600160a01b0316826001600160a01b0316847f2f8788117e7eff1d82e926ec794901d17c78024a50270940304540a733656f0d60405160405180910390a450600161056b565b505f61056b565b5f61056b825490565b5f611bef83836114bf565b15611bd4575f838152602081815260408083206001600160a01b0386168085529252808320805460ff1916905551339286917ff6391f5c32d9c69d2a47ea670b442974b53935d1edc7fd64eb21e047a839171b9190a450600161056b565b6001600160a01b038082165f90815260016020818152604092839020835160a08101855281548152928101549094169082015260028301549181018290526003830154606082015260049092015460ff1615156080830152611caf9083611be4565b506001600160a01b0382165f908152600160208190526040822082815590810180546001600160a01b031916905560028082018390556003820192909255600401805460ff19169055611d029083611d92565b5080515f908152600460205260409020611d1c9083611d92565b50611d2e815f01518260400151612116565b80516040513381526001600160a01b038416907f09fdf28cfa7c345022ba743ebc03269bbc8c078aaed47112e6392a31245676049060200160405180910390a35050565b60605f61174383612144565b5f611743836001600160a01b03841661219d565b5f611743836001600160a01b0384166121e2565b80158015611dc157505f8051602061297f8339815191528214155b8015611dda57505f805160206129bf8339815191528214155b15610d13578060405163dde87c7d60e01b815260040161059b9181526040602082018190526017908201527f4461746120686173682063616e6e6f7420626520307830000000000000000000606082015260800190565b6001600160a01b0381165f9081526001830160205260408120541515611743565b60606001831015611eb257604051631fff1b3b60e21b815260206004820152602360248201527f50616765206d7573742062652067726561746572206f7220657175616c20746f60448201526201018960ed1b606482015260840161059b565b6001821015611f1557604051631fff1b3b60e21b815260206004820152602860248201527f506167652073697a65206d7573742062652067726561746572206f7220657175604482015267030b6103a379018960c51b606482015260840161059b565b5f82611f22600186612919565b611f2c919061292c565b9050611f3785611bdb565b811115611f4a57611f4785611bdb565b90505b5f611f558483612943565b9050611f6086611bdb565b811115611f7357611f7086611bdb565b90505b5f611f7e8383612919565b67ffffffffffffffff811115611f9657611f96612956565b604051908082528060200260200182016040528015611fed57816020015b6040805160a0810182525f808252602080830182905292820181905260608201819052608082015282525f19909201910181611fb45790505b509050825b828110156120935760015f6120078a846122c5565b6001600160a01b03908116825260208083019390935260409182015f20825160a081018452815481526001820154909216938201939093526002830154918101919091526003820154606082015260049091015460ff1615156080820152826120708684612919565b81518110612080576120806128f1565b6020908102919091010152600101611ff2565b509695505050505050565b5f8051602061297f8339815191528103610d13575f828152600560205260409020546120cb906001612943565b5f838152600560205260409020555050565b6120e782826114bf565b610d135760405163e2517d3f60e01b81526001600160a01b03821660048201526024810183905260440161059b565b5f8051602061297f8339815191528103610d13575f828152600560205260409020546120cb90600190612919565b6060815f0180548060200260200160405190810160405280929190818152602001828054801561219157602002820191905f5260205f20905b81548152602001906001019080831161217d575b50505050509050919050565b5f818152600183016020526040812054611bd457508154600181810184555f84815260208082209093018490558454848252828601909352604090209190915561056b565b5f81815260018301602052604081205480156122bc575f612204600183612919565b85549091505f9061221790600190612919565b9050808214612276575f865f018281548110612235576122356128f1565b905f5260205f200154905080875f018481548110612255576122556128f1565b5f918252602080832090910192909255918252600188019052604090208390555b85548690806122875761228761296a565b600190038181905f5260205f20015f90559055856001015f8681526020019081526020015f205f90556001935050505061056b565b5f91505061056b565b5f61174383835f825f0182815481106122e0576122e06128f1565b905f5260205f200154905092915050565b828054828255905f5260205f20908101928215612342579160200282015b828111156123425781546001600160a01b0319166001600160a01b0384351617825560209092019160019091019061230f565b5061234e929150612369565b5090565b5080545f8255905f5260205f2090810190611b4991905b5b8082111561234e575f815560010161236a565b5f6020828403121561238d575f80fd5b81356001600160e01b031981168114611743575f80fd5b80356001600160a01b03811681146123ba575f80fd5b919050565b5f805f606084860312156123d1575f80fd5b6123da846123a4565b95602085013595506040909401359392505050565b5f805f8060808587031215612402575f80fd5b61240b856123a4565b966020860135965060408601359560600135945092505050565b5f60208284031215612435575f80fd5b5035919050565b5f806040838503121561244d575f80fd5b612456836123a4565b946020939093013593505050565b5f8060408385031215612475575f80fd5b82359150612485602084016123a4565b90509250929050565b5f6020828403121561249e575f80fd5b611743826123a4565b602080825282518282018190525f918401906040840190835b818110156124e75783516001600160a01b03168352602093840193909201916001016124c0565b509095945050505050565b8015158114611b49575f80fd5b5f805f8060608587031215612512575f80fd5b61251b856123a4565b9350602085013561252b816124f2565b9250604085013567ffffffffffffffff811115612546575f80fd5b8501601f81018713612556575f80fd5b803567ffffffffffffffff81111561256c575f80fd5b8760208260051b8401011115612580575f80fd5b949793965060200194505050565b5f806040838503121561259f575f80fd5b6125a8836123a4565b915060208301356125b8816124f2565b809150509250929050565b5f805f805f805f60c0888a0312156125d9575f80fd5b6125e2886123a4565b96506125f0602089016123a4565b955060408801359450606088013593506080880135925060a088013567ffffffffffffffff811115612620575f80fd5b8801601f81018a13612630575f80fd5b803567ffffffffffffffff811115612646575f80fd5b8a6020828401011115612657575f80fd5b602082019350809250505092959891949750929550565b5f805f60608486031215612680575f80fd5b505081359360208301359350604090920135919050565b805182526020808201516001600160a01b03169083015260408082015190830152606080820151908301526080908101511515910152565b602080825282518282018190525f918401906040840190835b818110156124e7576126fb838551612697565b6020939093019260a092909201916001016126e8565b5f8060408385031215612722575f80fd5b50508035926020909101359150565b60a0810161056b8284612697565b6001600160a01b03919091168152604060208201819052601590820152740416464726573732063616e6e6f742062652030783605c1b606082015260800190565b908152604060208201819052601c908201527f54686520696e666f726d656420726f6c6520697320756e6b6e6f776e00000000606082015260800190565b6001600160a01b039190911681526040602082018190526038908201527f546865206163636f756e74206f72207468652072657370656374697665206f7260608201527f67616e697a6174696f6e206973206e6f74206163746976650000000000000000608082015260a00190565b5f6020828403121561283d575f80fd5b8151611743816124f2565b9081526040602082018190526022908201527f546865206163636f756e742063616e6e6f7420626520676c6f62616c2061646d60608201526134b760f11b608082015260a00190565b604080825281018390525f8460608301825b868110156128d1576001600160a01b036128bc846123a4565b168252602092830192909101906001016128a3565b506001600160a01b03949094166020939093019290925250909392505050565b634e487b7160e01b5f52603260045260245ffd5b634e487b7160e01b5f52601160045260245ffd5b8181038181111561056b5761056b612905565b808202811582820484141761056b5761056b612905565b8082018082111561056b5761056b612905565b634e487b7160e01b5f52604160045260245ffd5b634e487b7160e01b5f52603160045260245ffdfed6e7d8560c69c7c18c2b8f3b45430215d788f128f0c04bc4a3607fe05eb5399f291827a9f396383e73d470c4babcfdea28770ed70f3fb43b5c9f801fa14ac661b7f8beecafe1ad662cec1153812612581a86b9460f21b876f3ee163141203dcba26469706673582212200a44f2f35038662e5de0f681e716ea93790586bee0cd5c92b5003d85234904e964736f6c634300081a0033d6e7d8560c69c7c18c2b8f3b45430215d788f128f0c04bc4a3607fe05eb5399f","linkReferences":{}},"methodIdentifiers":{"DEFAULT_ADMIN_ROLE()":"a217fddf","accounts(address)":"5e5c06e2","addAccount(address,uint256,bytes32,bytes32)":"18aa3810","addLocalAccount(address,bytes32,bytes32)":"05fa2754","admins()":"a5de3619","deleteAccount(address)":"4c1b64cb","deleteLocalAccount(address)":"377a5a2d","getAccount(address)":"fbcbc0f1","getAccounts(uint256,uint256)":"e68a7c3b","getAccountsByOrg(uint256,uint256,uint256)":"c9174424","getNumberOfAccounts()":"309e36ef","getNumberOfAccountsByOrg(uint256)":"5eba77cf","getRoleAdmin(bytes32)":"248a9ca3","globalAdminsCount(uint256)":"44d28525","grantRole(bytes32,address)":"2f2ff15d","hasRole(bytes32,address)":"91d14854","isAccountActive(address)":"ab9d0cdd","organizations()":"234db1de","renounceRole(bytes32,address)":"36568abe","restrictedAccounts()":"dfc2d5aa","restrictedAccountsAllowedTargets(address,uint256)":"945d961d","restrictedAccountsContains(address)":"e76da04b","restrictedSmartContracts()":"4fda87f8","restrictedSmartContractsAllowedSenders(address,uint256)":"24efe741","revokeRole(bytes32,address)":"d547741f","setAccountTargetAccess(address,bool,address[])":"6d3ed5b3","setSmartContractSenderAccess(address,bool,address[])":"d0420a14","supportsInterface(bytes4)":"01ffc9a7","transactionAllowed(address,address,uint256,uint256,uint256,bytes)":"936421d5","updateLocalAccount(address,bytes32,bytes32)":"6d8498c6","updateLocalAccountStatus(address,bool)":"7003396a","validRoles(bytes32)":"fb0f857e"},"id":28}