{"abi":[{"type":"function","name":"allowSender","inputs":[{"name":"sender","type":"address","internalType":"address"}],"outputs":[],"stateMutability":"nonpayable"},{"type":"function","name":"allowTarget","inputs":[{"name":"target","type":"address","internalType":"address"}],"outputs":[],"stateMutability":"nonpayable"},{"type":"function","name":"allowedPayload","inputs":[],"outputs":[{"name":"","type":"bytes","internalType":"bytes"}],"stateMutability":"view"},{"type":"function","name":"allowedSenders","inputs":[{"name":"","type":"address","internalType":"address"}],"outputs":[{"name":"","type":"bool","internalType":"bool"}],"stateMutability":"view"},{"type":"function","name":"allowedTargets","inputs":[{"name":"","type":"address","internalType":"address"}],"outputs":[{"name":"","type":"bool","internalType":"bool"}],"stateMutability":"view"},{"type":"function","name":"isSenderAddressValid","inputs":[{"name":"sender","type":"address","internalType":"address"}],"outputs":[{"name":"","type":"bool","internalType":"bool"}],"stateMutability":"nonpayable"},{"type":"function","name":"isTargetAddressValid","inputs":[{"name":"target","type":"address","internalType":"address"}],"outputs":[{"name":"","type":"bool","internalType":"bool"}],"stateMutability":"nonpayable"},{"type":"function","name":"mockTransactionAllowedResult","inputs":[],"outputs":[{"name":"","type":"bool","internalType":"bool"}],"stateMutability":"view"},{"type":"function","name":"setAllowedPayload","inputs":[{"name":"payload","type":"bytes","internalType":"bytes"}],"outputs":[],"stateMutability":"nonpayable"},{"type":"function","name":"setTransactionAllowedResultMock","inputs":[{"name":"result","type":"bool","internalType":"bool"}],"outputs":[],"stateMutability":"nonpayable"},{"type":"function","name":"transactionAllowed","inputs":[{"name":"sender","type":"address","internalType":"address"},{"name":"target","type":"address","internalType":"address"},{"name":"value","type":"uint256","internalType":"uint256"},{"name":"gasPrice","type":"uint256","internalType":"uint256"},{"name":"gasLimit","type":"uint256","internalType":"uint256"},{"name":"payload","type":"bytes","internalType":"bytes"}],"outputs":[{"name":"","type":"bool","internalType":"bool"}],"stateMutability":"view"},{"type":"error","name":"InvalidSenderAddress","inputs":[{"name":"sender","type":"address","internalType":"address"}]},{"type":"error","name":"InvalidTargetAddress","inputs":[{"name":"target","type":"address","internalType":"address"}]}],"bytecode":{"object":"0x6080604052348015600e575f80fd5b506107248061001c5f395ff3fe608060405234801561000f575f80fd5b50600436106100a6575f3560e01c80636d11fabe1161006e5780636d11fabe1461015457806377fa01f514610160578063936421d514610191578063b8fe8d5f146101a4578063ed011b1d146101c6578063fadbcf48146101d9575f80fd5b80630127b876146100aa578063192dd94a146100c85780631af3b7b0146100dd5780631dff2bcd146100fd578063466c683414610131575b5f80fd5b6100b26101fb565b6040516100bf919061038e565b60405180910390f35b6100db6100d6366004610408565b610287565b005b6100db6100eb366004610447565b5f805460ff1916911515919091179055565b6100db61010b366004610488565b6001600160a01b03165f908152600160208190526040909120805460ff19169091179055565b61014461013f366004610488565b610299565b60405190151581526020016100bf565b5f546101449060ff1681565b6100db61016e366004610488565b6001600160a01b03165f908152600260205260409020805460ff19166001179055565b61014461019f3660046104a1565b6102d9565b6101446101b2366004610488565b60026020525f908152604090205460ff1681565b6101446101d4366004610488565b61035b565b6101446101e7366004610488565b60016020525f908152604090205460ff1681565b600380546102089061051d565b80601f01602080910402602001604051908101604052809291908181526020018280546102349061051d565b801561027f5780601f106102565761010080835404028352916020019161027f565b820191905f5260205f20905b81548152906001019060200180831161026257829003601f168201915b505050505081565b60036102948284836105b4565b505050565b5f6001600160a01b0382166102d1576040516334f6384160e11b81526001600160a01b03831660048201526024015b60405180910390fd5b506001919050565b6001600160a01b0387165f9081526001602052604081205460ff16801561031757506001600160a01b0387165f9081526002602052604090205460ff165b801561034f5750600360405161032d919061066e565b604051809103902083836040516103459291906106df565b6040518091039020145b98975050505050505050565b5f6001600160a01b0382166102d1576040516378bedf4d60e01b81526001600160a01b03831660048201526024016102c8565b602081525f82518060208401528060208501604085015e5f604082850101526040601f19601f83011684010191505092915050565b5f8083601f8401126103d3575f80fd5b50813567ffffffffffffffff8111156103ea575f80fd5b602083019150836020828501011115610401575f80fd5b9250929050565b5f8060208385031215610419575f80fd5b823567ffffffffffffffff81111561042f575f80fd5b61043b858286016103c3565b90969095509350505050565b5f60208284031215610457575f80fd5b81358015158114610466575f80fd5b9392505050565b80356001600160a01b0381168114610483575f80fd5b919050565b5f60208284031215610498575f80fd5b6104668261046d565b5f805f805f805f60c0888a0312156104b7575f80fd5b6104c08861046d565b96506104ce6020890161046d565b955060408801359450606088013593506080880135925060a088013567ffffffffffffffff8111156104fe575f80fd5b61050a8a828b016103c3565b989b979a50959850939692959293505050565b600181811c9082168061053157607f821691505b60208210810361054f57634e487b7160e01b5f52602260045260245ffd5b50919050565b634e487b7160e01b5f52604160045260245ffd5b601f82111561029457805f5260205f20601f840160051c8101602085101561058e5750805b601f840160051c820191505b818110156105ad575f815560010161059a565b5050505050565b67ffffffffffffffff8311156105cc576105cc610555565b6105e0836105da835461051d565b83610569565b5f601f841160018114610611575f85156105fa5750838201355b5f19600387901b1c1916600186901b1783556105ad565b5f83815260208120601f198716915b828110156106405786850135825560209485019460019092019101610620565b508682101561065c575f1960f88860031b161c19848701351681555b505060018560011b0183555050505050565b5f80835461067b8161051d565b60018216801561069257600181146106a7576106d4565b60ff19831686528115158202860193506106d4565b865f5260205f205f5b838110156106cc578154888201526001909101906020016106b0565b505081860193505b509195945050505050565b818382375f910190815291905056fea26469706673582212203fd9bd5e09dab2d3fa987c1c5db8f35375b2d476963bbde31d25c79171e5220064736f6c634300081a0033","linkReferences":{}},"methodIdentifiers":{"allowSender(address)":"1dff2bcd","allowTarget(address)":"77fa01f5","allowedPayload()":"0127b876","allowedSenders(address)":"fadbcf48","allowedTargets(address)":"b8fe8d5f","isSenderAddressValid(address)":"466c6834","isTargetAddressValid(address)":"ed011b1d","mockTransactionAllowedResult()":"6d11fabe","setAllowedPayload(bytes)":"192dd94a","setTransactionAllowedResultMock(bool)":"1af3b7b0","transactionAllowed(address,address,uint256,uint256,uint256,bytes)":"936421d5"},"id":37}