{"abi":[{"type":"constructor","inputs":[{"name":"orgs","type":"address","internalType":"contract Organization"},{"name":"accs","type":"address","internalType":"contract AccountRulesV2"},{"name":"adminProxy","type":"address","internalType":"contract AdminProxy"}],"stateMutability":"nonpayable"},{"type":"function","name":"accountsContract","inputs":[],"outputs":[{"name":"","type":"address","internalType":"contract AccountRulesV2"}],"stateMutability":"view"},{"type":"function","name":"addLocalNode","inputs":[{"name":"enodeHigh","type":"bytes32","internalType":"bytes32"},{"name":"enodeLow","type":"bytes32","internalType":"bytes32"},{"name":"nodeType","type":"uint8","internalType":"enum NodeRulesV2.NodeType"},{"name":"name","type":"string","internalType":"string"}],"outputs":[],"stateMutability":"nonpayable"},{"type":"function","name":"addNode","inputs":[{"name":"enodeHigh","type":"bytes32","internalType":"bytes32"},{"name":"enodeLow","type":"bytes32","internalType":"bytes32"},{"name":"nodeType","type":"uint8","internalType":"enum NodeRulesV2.NodeType"},{"name":"name","type":"string","internalType":"string"},{"name":"orgId","type":"uint256","internalType":"uint256"}],"outputs":[],"stateMutability":"nonpayable"},{"type":"function","name":"admins","inputs":[],"outputs":[{"name":"","type":"address","internalType":"contract AdminProxy"}],"stateMutability":"view"},{"type":"function","name":"allowedNodes","inputs":[{"name":"","type":"uint256","internalType":"uint256"}],"outputs":[{"name":"enodeHigh","type":"bytes32","internalType":"bytes32"},{"name":"enodeLow","type":"bytes32","internalType":"bytes32"},{"name":"nodeType","type":"uint8","internalType":"enum NodeRulesV2.NodeType"},{"name":"name","type":"string","internalType":"string"},{"name":"orgId","type":"uint256","internalType":"uint256"},{"name":"active","type":"bool","internalType":"bool"}],"stateMutability":"view"},{"type":"function","name":"connectionAllowed","inputs":[{"name":"sourceEnodeHigh","type":"bytes32","internalType":"bytes32"},{"name":"sourceEnodeLow","type":"bytes32","internalType":"bytes32"},{"name":"","type":"bytes16","internalType":"bytes16"},{"name":"","type":"uint16","internalType":"uint16"},{"name":"destinationEnodeHigh","type":"bytes32","internalType":"bytes32"},{"name":"destinationEnodeLow","type":"bytes32","internalType":"bytes32"},{"name":"","type":"bytes16","internalType":"bytes16"},{"name":"","type":"uint16","internalType":"uint16"}],"outputs":[{"name":"","type":"bytes32","internalType":"bytes32"}],"stateMutability":"view"},{"type":"function","name":"deleteLocalNode","inputs":[{"name":"enodeHigh","type":"bytes32","internalType":"bytes32"},{"name":"enodeLow","type":"bytes32","internalType":"bytes32"}],"outputs":[],"stateMutability":"nonpayable"},{"type":"function","name":"deleteNode","inputs":[{"name":"enodeHigh","type":"bytes32","internalType":"bytes32"},{"name":"enodeLow","type":"bytes32","internalType":"bytes32"}],"outputs":[],"stateMutability":"nonpayable"},{"type":"function","name":"getNode","inputs":[{"name":"enodeHigh","type":"bytes32","internalType":"bytes32"},{"name":"enodeLow","type":"bytes32","internalType":"bytes32"}],"outputs":[{"name":"","type":"tuple","internalType":"struct NodeRulesV2.NodeData","components":[{"name":"enodeHigh","type":"bytes32","internalType":"bytes32"},{"name":"enodeLow","type":"bytes32","internalType":"bytes32"},{"name":"nodeType","type":"uint8","internalType":"enum NodeRulesV2.NodeType"},{"name":"name","type":"string","internalType":"string"},{"name":"orgId","type":"uint256","internalType":"uint256"},{"name":"active","type":"bool","internalType":"bool"}]}],"stateMutability":"view"},{"type":"function","name":"getNodes","inputs":[{"name":"page","type":"uint256","internalType":"uint256"},{"name":"pageSize","type":"uint256","internalType":"uint256"}],"outputs":[{"name":"","type":"tuple[]","internalType":"struct NodeRulesV2.NodeData[]","components":[{"name":"enodeHigh","type":"bytes32","internalType":"bytes32"},{"name":"enodeLow","type":"bytes32","internalType":"bytes32"},{"name":"nodeType","type":"uint8","internalType":"enum NodeRulesV2.NodeType"},{"name":"name","type":"string","internalType":"string"},{"name":"orgId","type":"uint256","internalType":"uint256"},{"name":"active","type":"bool","internalType":"bool"}]}],"stateMutability":"view"},{"type":"function","name":"getNodesByOrg","inputs":[{"name":"orgId","type":"uint256","internalType":"uint256"},{"name":"page","type":"uint256","internalType":"uint256"},{"name":"pageSize","type":"uint256","internalType":"uint256"}],"outputs":[{"name":"","type":"tuple[]","internalType":"struct NodeRulesV2.NodeData[]","components":[{"name":"enodeHigh","type":"bytes32","internalType":"bytes32"},{"name":"enodeLow","type":"bytes32","internalType":"bytes32"},{"name":"nodeType","type":"uint8","internalType":"enum NodeRulesV2.NodeType"},{"name":"name","type":"string","internalType":"string"},{"name":"orgId","type":"uint256","internalType":"uint256"},{"name":"active","type":"bool","internalType":"bool"}]}],"stateMutability":"view"},{"type":"function","name":"getNumberOfNodes","inputs":[],"outputs":[{"name":"","type":"uint256","internalType":"uint256"}],"stateMutability":"view"},{"type":"function","name":"getNumberOfNodesByOrg","inputs":[{"name":"orgId","type":"uint256","internalType":"uint256"}],"outputs":[{"name":"","type":"uint256","internalType":"uint256"}],"stateMutability":"view"},{"type":"function","name":"isNodeActive","inputs":[{"name":"enodeHigh","type":"bytes32","internalType":"bytes32"},{"name":"enodeLow","type":"bytes32","internalType":"bytes32"}],"outputs":[{"name":"","type":"bool","internalType":"bool"}],"stateMutability":"view"},{"type":"function","name":"organizationsContract","inputs":[],"outputs":[{"name":"","type":"address","internalType":"contract Organization"}],"stateMutability":"view"},{"type":"function","name":"updateLocalNode","inputs":[{"name":"enodeHigh","type":"bytes32","internalType":"bytes32"},{"name":"enodeLow","type":"bytes32","internalType":"bytes32"},{"name":"nodeType","type":"uint8","internalType":"enum NodeRulesV2.NodeType"},{"name":"name","type":"string","internalType":"string"}],"outputs":[],"stateMutability":"nonpayable"},{"type":"function","name":"updateLocalNodeStatus","inputs":[{"name":"enodeHigh","type":"bytes32","internalType":"bytes32"},{"name":"enodeLow","type":"bytes32","internalType":"bytes32"},{"name":"active","type":"bool","internalType":"bool"}],"outputs":[],"stateMutability":"nonpayable"},{"type":"event","name":"NodeAdded","inputs":[{"name":"enodeHigh","type":"bytes32","indexed":true,"internalType":"bytes32"},{"name":"enodeLow","type":"bytes32","indexed":true,"internalType":"bytes32"},{"name":"orgId","type":"uint256","indexed":true,"internalType":"uint256"},{"name":"admin","type":"address","indexed":false,"internalType":"address"}],"anonymous":false},{"type":"event","name":"NodeDeleted","inputs":[{"name":"enodeHigh","type":"bytes32","indexed":true,"internalType":"bytes32"},{"name":"enodeLow","type":"bytes32","indexed":true,"internalType":"bytes32"},{"name":"orgId","type":"uint256","indexed":true,"internalType":"uint256"},{"name":"admin","type":"address","indexed":false,"internalType":"address"}],"anonymous":false},{"type":"event","name":"NodeStatusUpdated","inputs":[{"name":"enodeHigh","type":"bytes32","indexed":true,"internalType":"bytes32"},{"name":"enodeLow","type":"bytes32","indexed":true,"internalType":"bytes32"},{"name":"orgId","type":"uint256","indexed":true,"internalType":"uint256"},{"name":"active","type":"bool","indexed":false,"internalType":"bool"},{"name":"admin","type":"address","indexed":false,"internalType":"address"}],"anonymous":false},{"type":"event","name":"NodeUpdated","inputs":[{"name":"enodeHigh","type":"bytes32","indexed":true,"internalType":"bytes32"},{"name":"enodeLow","type":"bytes32","indexed":true,"internalType":"bytes32"},{"name":"orgId","type":"uint256","indexed":true,"internalType":"uint256"},{"name":"admin","type":"address","indexed":false,"internalType":"address"}],"anonymous":false},{"type":"error","name":"DuplicateNode","inputs":[{"name":"enodeHigh","type":"bytes32","internalType":"bytes32"},{"name":"enodeLow","type":"bytes32","internalType":"bytes32"}]},{"type":"error","name":"InactiveAccount","inputs":[{"name":"account","type":"address","internalType":"address"},{"name":"message","type":"string","internalType":"string"}]},{"type":"error","name":"InactiveNode","inputs":[{"name":"enodeHigh","type":"bytes32","internalType":"bytes32"},{"name":"enodeLow","type":"bytes32","internalType":"bytes32"}]},{"type":"error","name":"InvalidArgument","inputs":[{"name":"message","type":"string","internalType":"string"}]},{"type":"error","name":"InvalidOrganization","inputs":[{"name":"orgId","type":"uint256","internalType":"uint256"}]},{"type":"error","name":"InvalidState","inputs":[{"name":"message","type":"string","internalType":"string"}]},{"type":"error","name":"NodeNotFound","inputs":[{"name":"enodeHigh","type":"bytes32","internalType":"bytes32"},{"name":"enodeLow","type":"bytes32","internalType":"bytes32"}]},{"type":"error","name":"NotLocalNode","inputs":[{"name":"enodeHigh","type":"bytes32","internalType":"bytes32"},{"name":"enodeLow","type":"bytes32","internalType":"bytes32"}]},{"type":"error","name":"UnauthorizedAccess","inputs":[{"name":"account","type":"address","internalType":"address"}]}],"bytecode":{"object":"0x60e060405234801561000f575f80fd5b5060405161265738038061265783398101604081905261002e916101df565b806001600160a01b0381166100b05760405162461bcd60e51b815260206004820152603360248201527f496e76616c6964206164647265737320666f722041646d696e206d616e61676560448201527f6d656e7420736d61727420636f6e74726163740000000000000000000000000060648201526084015b60405180910390fd5b6001600160a01b03908116608052831661013357604051631fff1b3b60e21b815260206004820152603a60248201527f496e76616c6964206164647265737320666f72204f7267616e697a6174696f6e60448201527f206d616e6167656d656e7420736d61727420636f6e747261637400000000000060648201526084016100a7565b6001600160a01b0382166101b057604051631fff1b3b60e21b815260206004820152603560248201527f496e76616c6964206164647265737320666f72204163636f756e74206d616e6160448201527f67656d656e7420736d61727420636f6e7472616374000000000000000000000060648201526084016100a7565b506001600160a01b0391821660c0521660a052610229565b6001600160a01b03811681146101dc575f80fd5b50565b5f805f606084860312156101f1575f80fd5b83516101fc816101c8565b602085015190935061020d816101c8565b604085015190925061021e816101c8565b809150509250925092565b60805160a05160c0516123866102d15f395f818161027501528181610483015261094101525f818161016e01528181610546015281816105e70152818161068f0152818161073601528181610b8401528181610c2501528181610ccd01528181610e1501528181610eb601528181610f5e01528181611039015281816110da01528181611182015261187501525f81816101f601528181610317015261089b01526123865ff3fe608060405234801561000f575f80fd5b5060043610610106575f3560e01c8063a63ca0761161009e578063b81c806a1161006e578063b81c806a14610297578063d05f68091461029f578063d90a63ff146102b2578063e78004e4146102c5578063ea8c0bc9146102d8575f80fd5b8063a63ca07614610218578063a9aab5eb1461023d578063af50afc714610250578063b818765f14610270575f80fd5b806374d5249c116100d957806374d5249c146101a857806376ccad21146101bb57806397689f17146101de578063a5de3619146101f1575f80fd5b8063038d67e81461010a57806333aa9b2e146101335780633620b1df14610148578063446f201e14610169575b5f80fd5b61011d610118366004611b80565b6102eb565b60405161012a9190611c5f565b60405180910390f35b610146610141366004611b80565b610302565b005b61015b610156366004611cf8565b6103e8565b60405190815260200161012a565b6101907f000000000000000000000000000000000000000000000000000000000000000081565b6040516001600160a01b03909116815260200161012a565b61011d6101b6366004611d6e565b610427565b6101ce6101c9366004611b80565b61044a565b604051901515815260200161012a565b6101466101ec366004611dea565b61051e565b6101907f000000000000000000000000000000000000000000000000000000000000000081565b61022b610226366004611e4d565b6107c2565b60405161012a96959493929190611e64565b61014661024b366004611ea9565b610886565b61026361025e366004611b80565b6109e0565b60405161012a9190611f14565b6101907f000000000000000000000000000000000000000000000000000000000000000081565b61015b610b36565b61015b6102ad366004611e4d565b610b46565b6101466102c0366004611f33565b610b5c565b6101466102d3366004611b80565b610ded565b6101466102e6366004611dea565b611011565b60606102f9600184846112dc565b90505b92915050565b6040516301fd3f7760e71b81523360048201527f00000000000000000000000000000000000000000000000000000000000000006001600160a01b03169063fe9fbb8090602401602060405180830381865afa158015610364573d5f803e3d5ffd5b505050506040513d601f19601f820116820180604052508101906103889190611f74565b6103ac57604051633733be5960e21b81523360048201526024015b60405180910390fd5b5f6103b783836115dc565b90506103c4838383611608565b6103e38383835f808681526020019081526020015f2060040154611640565b505050565b5f6103f3898961044a565b80156104045750610404858561044a565b1561041157505f1961041b565b506001600160ff1b035b98975050505050505050565b5f8381526003602052604090206060906104429084846112dc565b949350505050565b5f8061045684846115dc565b5f81815260208190526040908190206004808201549251630ba7801b60e21b8152908101929092529192507f00000000000000000000000000000000000000000000000000000000000000006001600160a01b031690632e9e006c90602401602060405180830381865afa1580156104d0573d5f803e3d5ffd5b505050506040513d601f19601f820116820180604052508101906104f49190611f74565b80156105045750600581015460ff165b15610514576001925050506102fc565b505f949350505050565b604051632474521560e21b81525f8051602061231183398151915260048201523360248201527f00000000000000000000000000000000000000000000000000000000000000006001600160a01b0316906391d1485490604401602060405180830381865afa158015610593573d5f803e3d5ffd5b505050506040513d601f19601f820116820180604052508101906105b79190611f74565b15801561065a5750604051632474521560e21b81525f8051602061233183398151915260048201523360248201527f00000000000000000000000000000000000000000000000000000000000000006001600160a01b0316906391d1485490604401602060405180830381865afa158015610634573d5f803e3d5ffd5b505050506040513d601f19601f820116820180604052508101906106589190611f74565b155b1561067a57604051633733be5960e21b81523360048201526024016103a3565b60405163ab9d0cdd60e01b81523360048201527f00000000000000000000000000000000000000000000000000000000000000006001600160a01b03169063ab9d0cdd90602401602060405180830381865afa1580156106dc573d5f803e3d5ffd5b505050506040513d601f19601f820116820180604052508101906107009190611f74565b61071f573360405163fcbe8fe560e01b81526004016103a39190611f96565b60405163fbcbc0f160e01b81523360048201525f907f00000000000000000000000000000000000000000000000000000000000000006001600160a01b03169063fbcbc0f19060240160a060405180830381865afa158015610783573d5f803e3d5ffd5b505050506040513d601f19601f820116820180604052508101906107a79190612019565b90506107ba8686868686865f01516116dd565b505050505050565b5f6020819052908152604090208054600182015460028301546003840180549394929360ff90921692916107f59061209f565b80601f01602080910402602001604051908101604052809291908181526020018280546108219061209f565b801561086c5780601f106108435761010080835404028352916020019161086c565b820191905f5260205f20905b81548152906001019060200180831161084f57829003601f168201915b50505050600483015460059093015491929160ff16905086565b6040516301fd3f7760e71b81523360048201527f00000000000000000000000000000000000000000000000000000000000000006001600160a01b03169063fe9fbb8090602401602060405180830381865afa1580156108e8573d5f803e3d5ffd5b505050506040513d601f19601f8201168201806040525081019061090c9190611f74565b61092b57604051633733be5960e21b81523360048201526024016103a3565b604051630ba7801b60e21b8152600481018290527f00000000000000000000000000000000000000000000000000000000000000006001600160a01b031690632e9e006c90602401602060405180830381865afa15801561098e573d5f803e3d5ffd5b505050506040513d601f19601f820116820180604052508101906109b29190611f74565b6109d257604051636bd27f1960e11b8152600481018290526024016103a3565b6107ba8686868686866116dd565b6040805160c0810182525f808252602082018190529181018290526060808201526080810182905260a0810182905290610a1a84846115dc565b9050610a27848483611608565b5f8181526020818152604091829020825160c081018452815481526001820154928101929092526002810154919290919083019060ff166006811115610a6f57610a6f611ba0565b6006811115610a8057610a80611ba0565b8152602001600382018054610a949061209f565b80601f0160208091040260200160405190810160405280929190818152602001828054610ac09061209f565b8015610b0b5780601f10610ae257610100808354040283529160200191610b0b565b820191905f5260205f20905b815481529060010190602001808311610aee57829003601f168201915b50505091835250506004820154602082015260059091015460ff161515604090910152949350505050565b5f610b416001611855565b905090565b5f8181526003602052604081206102fc90611855565b604051632474521560e21b81525f8051602061231183398151915260048201523360248201527f00000000000000000000000000000000000000000000000000000000000000006001600160a01b0316906391d1485490604401602060405180830381865afa158015610bd1573d5f803e3d5ffd5b505050506040513d601f19601f82011682018060405250810190610bf59190611f74565b158015610c985750604051632474521560e21b81525f8051602061233183398151915260048201523360248201527f00000000000000000000000000000000000000000000000000000000000000006001600160a01b0316906391d1485490604401602060405180830381865afa158015610c72573d5f803e3d5ffd5b505050506040513d601f19601f82011682018060405250810190610c969190611f74565b155b15610cb857604051633733be5960e21b81523360048201526024016103a3565b60405163ab9d0cdd60e01b81523360048201527f00000000000000000000000000000000000000000000000000000000000000006001600160a01b03169063ab9d0cdd90602401602060405180830381865afa158015610d1a573d5f803e3d5ffd5b505050506040513d601f19601f82011682018060405250810190610d3e9190611f74565b610d5d573360405163fcbe8fe560e01b81526004016103a39190611f96565b5f610d6884846115dc565b9050610d75848483611608565b610d8084848361185e565b5f818152602081815260409182902060058101805460ff1916861515908117909155600490910154835191825233928201929092529091859187917fac0851ccfe2786016b9a762330b7e796bc2801b6d15708d736bd73fbf2c2ecc991015b60405180910390a450505050565b604051632474521560e21b81525f8051602061231183398151915260048201523360248201527f00000000000000000000000000000000000000000000000000000000000000006001600160a01b0316906391d1485490604401602060405180830381865afa158015610e62573d5f803e3d5ffd5b505050506040513d601f19601f82011682018060405250810190610e869190611f74565b158015610f295750604051632474521560e21b81525f8051602061233183398151915260048201523360248201527f00000000000000000000000000000000000000000000000000000000000000006001600160a01b0316906391d1485490604401602060405180830381865afa158015610f03573d5f803e3d5ffd5b505050506040513d601f19601f82011682018060405250810190610f279190611f74565b155b15610f4957604051633733be5960e21b81523360048201526024016103a3565b60405163ab9d0cdd60e01b81523360048201527f00000000000000000000000000000000000000000000000000000000000000006001600160a01b03169063ab9d0cdd90602401602060405180830381865afa158015610fab573d5f803e3d5ffd5b505050506040513d601f19601f82011682018060405250810190610fcf9190611f74565b610fee573360405163fcbe8fe560e01b81526004016103a39190611f96565b5f610ff983836115dc565b9050611006838383611608565b6103c483838361185e565b604051632474521560e21b81525f8051602061231183398151915260048201523360248201527f00000000000000000000000000000000000000000000000000000000000000006001600160a01b0316906391d1485490604401602060405180830381865afa158015611086573d5f803e3d5ffd5b505050506040513d601f19601f820116820180604052508101906110aa9190611f74565b15801561114d5750604051632474521560e21b81525f8051602061233183398151915260048201523360248201527f00000000000000000000000000000000000000000000000000000000000000006001600160a01b0316906391d1485490604401602060405180830381865afa158015611127573d5f803e3d5ffd5b505050506040513d601f19601f8201168201806040525081019061114b9190611f74565b155b1561116d57604051633733be5960e21b81523360048201526024016103a3565b60405163ab9d0cdd60e01b81523360048201527f00000000000000000000000000000000000000000000000000000000000000006001600160a01b03169063ab9d0cdd90602401602060405180830381865afa1580156111cf573d5f803e3d5ffd5b505050506040513d601f19601f820116820180604052508101906111f39190611f74565b611212573360405163fcbe8fe560e01b81526004016103a39190611f96565b5f61121d86866115dc565b905061122a868683611608565b61123586868361185e565b61123f838361192a565b5f818152602081905260409020600201805485919060ff1916600183600681111561126c5761126c611ba0565b02179055505f81815260208190526040902060030161128c838583612122565b505f8181526020818152604091829020600401549151338152879189917f5e470e4ee365b9df80d45720dd703d05a1dbf1339fe6d29fbfeb09552b841194910160405180910390a4505050505050565b6060600183101561133c57604051631fff1b3b60e21b815260206004820152602360248201527f50616765206d7573742062652067726561746572206f7220657175616c20746f60448201526201018960ed1b60648201526084016103a3565b600182101561139f57604051631fff1b3b60e21b815260206004820152602860248201527f506167652073697a65206d7573742062652067726561746572206f7220657175604482015267030b6103a379018960c51b60648201526084016103a3565b5f826113ac6001866121f0565b6113b69190612203565b90506113c185611855565b8111156113d4576113d185611855565b90505b5f6113df848361221a565b90506113ea86611855565b8111156113fd576113fa86611855565b90505b5f61140883836121f0565b67ffffffffffffffff81111561142057611420612005565b60405190808252806020026020018201604052801561147d57816020015b6040805160c0810182525f80825260208083018290529282018190526060808301526080820181905260a082015282525f1990920191018161143e5790505b509050825b828110156115d1575f806114968a8461197f565b81526020019081526020015f206040518060c00160405290815f820154815260200160018201548152602001600282015f9054906101000a900460ff1660068111156114e4576114e4611ba0565b60068111156114f5576114f5611ba0565b81526020016003820180546115099061209f565b80601f01602080910402602001604051908101604052809291908181526020018280546115359061209f565b80156115805780601f1061155757610100808354040283529160200191611580565b820191905f5260205f20905b81548152906001019060200180831161156357829003601f168201915b50505091835250506004820154602082015260059091015460ff161515604090910152826115ae86846121f0565b815181106115be576115be61222d565b6020908102919091010152600101611482565b509695505050505050565b604080516020808201949094528082019290925280518083038201815260609092019052805191012090565b5f818152602081905260409020600401546103e357604051630e94479f60e11b815260048101849052602481018390526044016103a3565b5f8281526020819052604081208181556001810182905560028101805460ff19169055906116716003830182611b2e565b505f6004820155600501805460ff1916905561168e60018361198a565b505f8181526003602052604090206116a6908361198a565b506040513381528190849086907f5f57be241d751c91ce22f1e2397ec0ce83feb680a7d1bf560991c637f72581cf90602001610ddf565b5f6116e887876115dc565b90506116f5878783611995565b6116ff848461192a565b6040518060c0016040528088815260200187815260200186600681111561172857611728611ba0565b815260200185858080601f0160208091040260200160405190810160405280939291908181526020018383808284375f92018290525093855250505060208083018690526001604093840181905285835282825291839020845181559084015181830155918301516002830180549192909160ff1916908360068111156117b1576117b1611ba0565b0217905550606082015160038201906117ca9082612241565b506080820151600482015560a0909101516005909101805460ff19169115159190911790556117fa6001826119ce565b505f82815260036020526040902061181290826119ce565b506040513381528290879089907f1e35ef79a100553c4d145bc99d7de04859f3011ab2ffd24dca03e79f5a73f75d9060200160405180910390a450505050505050565b5f6102fc825490565b60405163fbcbc0f160e01b81523360048201525f907f00000000000000000000000000000000000000000000000000000000000000006001600160a01b03169063fbcbc0f19060240160a060405180830381865afa1580156118c2573d5f803e3d5ffd5b505050506040513d601f19601f820116820180604052508101906118e69190612019565b5f8381526020819052604090206004015481519192501461192457604051631762900360e31b815260048101859052602481018490526044016103a3565b50505050565b5f81900361197b57604051631fff1b3b60e21b815260206004820152601a60248201527f4e6f6465206e616d652063616e6e6f7420626520656d7074792e00000000000060448201526064016103a3565b5050565b5f6102f983836119d9565b5f6102f983836119ff565b5f81815260208190526040902060040154156103e357604051630dbe066160e21b815260048101849052602481018390526044016103a3565b5f6102f98383611ae2565b5f825f0182815481106119ee576119ee61222d565b905f5260205f200154905092915050565b5f8181526001830160205260408120548015611ad9575f611a216001836121f0565b85549091505f90611a34906001906121f0565b9050808214611a93575f865f018281548110611a5257611a5261222d565b905f5260205f200154905080875f018481548110611a7257611a7261222d565b5f918252602080832090910192909255918252600188019052604090208390555b8554869080611aa457611aa46122fc565b600190038181905f5260205f20015f90559055856001015f8681526020019081526020015f205f9055600193505050506102fc565b5f9150506102fc565b5f818152600183016020526040812054611b2757508154600181810184555f8481526020808220909301849055845484825282860190935260409020919091556102fc565b505f6102fc565b508054611b3a9061209f565b5f825580601f10611b49575050565b601f0160209004905f5260205f2090810190611b659190611b68565b50565b5b80821115611b7c575f8155600101611b69565b5090565b5f8060408385031215611b91575f80fd5b50508035926020909101359150565b634e487b7160e01b5f52602160045260245ffd5b60078110611bd057634e487b7160e01b5f52602160045260245ffd5b9052565b5f81518084528060208401602086015e5f602082860101526020601f19601f83011685010191505092915050565b80518252602081015160208301525f6040820151611c236040850182611bb4565b50606082015160c06060850152611c3d60c0850182611bd4565b90506080830151608085015260a0830151151560a08501528091505092915050565b5f602082016020835280845180835260408501915060408160051b8601019250602086015f5b82811015611cb657603f19878603018452611ca1858351611c02565b94506020938401939190910190600101611c85565b50929695505050505050565b80356fffffffffffffffffffffffffffffffff1981168114611ce2575f80fd5b919050565b803561ffff81168114611ce2575f80fd5b5f805f805f805f80610100898b031215611d10575f80fd5b8835975060208901359650611d2760408a01611cc2565b9550611d3560608a01611ce7565b94506080890135935060a08901359250611d5160c08a01611cc2565b9150611d5f60e08a01611ce7565b90509295985092959890939650565b5f805f60608486031215611d80575f80fd5b505081359360208301359350604090920135919050565b803560078110611ce2575f80fd5b5f8083601f840112611db5575f80fd5b50813567ffffffffffffffff811115611dcc575f80fd5b602083019150836020828501011115611de3575f80fd5b9250929050565b5f805f805f60808688031215611dfe575f80fd5b8535945060208601359350611e1560408701611d97565b9250606086013567ffffffffffffffff811115611e30575f80fd5b611e3c88828901611da5565b969995985093965092949392505050565b5f60208284031215611e5d575f80fd5b5035919050565b868152856020820152611e7a6040820186611bb4565b60c060608201525f611e8f60c0830186611bd4565b60808301949094525090151560a090910152949350505050565b5f805f805f8060a08789031215611ebe575f80fd5b8635955060208701359450611ed560408801611d97565b9350606087013567ffffffffffffffff811115611ef0575f80fd5b611efc89828a01611da5565b979a9699509497949695608090950135949350505050565b602081525f6102f96020830184611c02565b8015158114611b65575f80fd5b5f805f60608486031215611f45575f80fd5b83359250602084013591506040840135611f5e81611f26565b809150509250925092565b8051611ce281611f26565b5f60208284031215611f84575f80fd5b8151611f8f81611f26565b9392505050565b6001600160a01b039190911681526040602082018190526038908201527f546865206163636f756e74206f72207468652072657370656374697665206f7260608201527f67616e697a6174696f6e206973206e6f74206163746976650000000000000000608082015260a00190565b634e487b7160e01b5f52604160045260245ffd5b5f60a082840312801561202a575f80fd5b5060405160a0810167ffffffffffffffff8111828210171561204e5761204e612005565b6040528251815260208301516001600160a01b038116811461206e575f80fd5b6020820152604083810151908201526060808401519082015261209360808401611f69565b60808201529392505050565b600181811c908216806120b357607f821691505b6020821081036120d157634e487b7160e01b5f52602260045260245ffd5b50919050565b601f8211156103e357805f5260205f20601f840160051c810160208510156120fc5750805b601f840160051c820191505b8181101561211b575f8155600101612108565b5050505050565b67ffffffffffffffff83111561213a5761213a612005565b61214e83612148835461209f565b836120d7565b5f601f84116001811461217f575f85156121685750838201355b5f19600387901b1c1916600186901b17835561211b565b5f83815260208120601f198716915b828110156121ae578685013582556020948501946001909201910161218e565b50868210156121ca575f1960f88860031b161c19848701351681555b505060018560011b0183555050505050565b634e487b7160e01b5f52601160045260245ffd5b818103818111156102fc576102fc6121dc565b80820281158282048414176102fc576102fc6121dc565b808201808211156102fc576102fc6121dc565b634e487b7160e01b5f52603260045260245ffd5b815167ffffffffffffffff81111561225b5761225b612005565b61226f81612269845461209f565b846120d7565b6020601f8211600181146122a1575f831561228a5750848201515b5f19600385901b1c1916600184901b17845561211b565b5f84815260208120601f198516915b828110156122d057878501518255602094850194600190920191016122b0565b50848210156122ed57868401515f19600387901b60f8161c191681555b50505050600190811b01905550565b634e487b7160e01b5f52603160045260245ffdfed6e7d8560c69c7c18c2b8f3b45430215d788f128f0c04bc4a3607fe05eb5399fb7f8beecafe1ad662cec1153812612581a86b9460f21b876f3ee163141203dcba2646970667358221220304e84c368406a89cc8fc7593ddbc98782c98bf766d735f429448ab3333b4ae064736f6c634300081a0033","linkReferences":{}},"methodIdentifiers":{"accountsContract()":"446f201e","addLocalNode(bytes32,bytes32,uint8,string)":"97689f17","addNode(bytes32,bytes32,uint8,string,uint256)":"a9aab5eb","admins()":"a5de3619","allowedNodes(uint256)":"a63ca076","connectionAllowed(bytes32,bytes32,bytes16,uint16,bytes32,bytes32,bytes16,uint16)":"3620b1df","deleteLocalNode(bytes32,bytes32)":"e78004e4","deleteNode(bytes32,bytes32)":"33aa9b2e","getNode(bytes32,bytes32)":"af50afc7","getNodes(uint256,uint256)":"038d67e8","getNodesByOrg(uint256,uint256,uint256)":"74d5249c","getNumberOfNodes()":"b81c806a","getNumberOfNodesByOrg(uint256)":"d05f6809","isNodeActive(bytes32,bytes32)":"76ccad21","organizationsContract()":"b818765f","updateLocalNode(bytes32,bytes32,uint8,string)":"ea8c0bc9","updateLocalNodeStatus(bytes32,bytes32,bool)":"d90a63ff"},"id":34}